{
  "_format": "hh3-artifact-1",
  "contractName": "SealedVote",
  "sourceName": "contracts/SealedVote.sol",
  "abi": [
    {
      "anonymous": false,
      "inputs": [
        {
          "indexed": true,
          "internalType": "uint256",
          "name": "pollId",
          "type": "uint256"
        },
        {
          "indexed": true,
          "internalType": "address",
          "name": "voter",
          "type": "address"
        }
      ],
      "name": "Committed",
      "type": "event"
    },
    {
      "anonymous": false,
      "inputs": [
        {
          "indexed": true,
          "internalType": "uint256",
          "name": "pollId",
          "type": "uint256"
        },
        {
          "indexed": false,
          "internalType": "uint8",
          "name": "winningOption",
          "type": "uint8"
        }
      ],
      "name": "Finalized",
      "type": "event"
    },
    {
      "anonymous": false,
      "inputs": [
        {
          "indexed": true,
          "internalType": "uint256",
          "name": "pollId",
          "type": "uint256"
        },
        {
          "indexed": true,
          "internalType": "address",
          "name": "creator",
          "type": "address"
        },
        {
          "indexed": false,
          "internalType": "uint8",
          "name": "numOptions",
          "type": "uint8"
        },
        {
          "indexed": false,
          "internalType": "uint64",
          "name": "commitEnd",
          "type": "uint64"
        },
        {
          "indexed": false,
          "internalType": "uint64",
          "name": "revealEnd",
          "type": "uint64"
        }
      ],
      "name": "PollCreated",
      "type": "event"
    },
    {
      "anonymous": false,
      "inputs": [
        {
          "indexed": true,
          "internalType": "uint256",
          "name": "pollId",
          "type": "uint256"
        },
        {
          "indexed": true,
          "internalType": "address",
          "name": "voter",
          "type": "address"
        },
        {
          "indexed": false,
          "internalType": "uint8",
          "name": "optionIndex",
          "type": "uint8"
        }
      ],
      "name": "Revealed",
      "type": "event"
    },
    {
      "inputs": [
        {
          "internalType": "uint256",
          "name": "pollId",
          "type": "uint256"
        },
        {
          "internalType": "bytes32",
          "name": "commitment",
          "type": "bytes32"
        }
      ],
      "name": "commit",
      "outputs": [],
      "stateMutability": "nonpayable",
      "type": "function"
    },
    {
      "inputs": [
        {
          "internalType": "uint8",
          "name": "numOptions",
          "type": "uint8"
        },
        {
          "internalType": "uint32",
          "name": "commitSeconds",
          "type": "uint32"
        },
        {
          "internalType": "uint32",
          "name": "revealSeconds",
          "type": "uint32"
        }
      ],
      "name": "createPoll",
      "outputs": [
        {
          "internalType": "uint256",
          "name": "pollId",
          "type": "uint256"
        }
      ],
      "stateMutability": "nonpayable",
      "type": "function"
    },
    {
      "inputs": [
        {
          "internalType": "uint256",
          "name": "pollId",
          "type": "uint256"
        }
      ],
      "name": "finalize",
      "outputs": [
        {
          "internalType": "uint8",
          "name": "winning",
          "type": "uint8"
        }
      ],
      "stateMutability": "nonpayable",
      "type": "function"
    },
    {
      "inputs": [
        {
          "internalType": "uint256",
          "name": "pollId",
          "type": "uint256"
        }
      ],
      "name": "getNumOptions",
      "outputs": [
        {
          "internalType": "uint8",
          "name": "",
          "type": "uint8"
        }
      ],
      "stateMutability": "view",
      "type": "function"
    },
    {
      "inputs": [
        {
          "internalType": "uint256",
          "name": "pollId",
          "type": "uint256"
        }
      ],
      "name": "getPollTimes",
      "outputs": [
        {
          "internalType": "uint64",
          "name": "commitEnd",
          "type": "uint64"
        },
        {
          "internalType": "uint64",
          "name": "revealEnd",
          "type": "uint64"
        }
      ],
      "stateMutability": "view",
      "type": "function"
    },
    {
      "inputs": [
        {
          "internalType": "uint256",
          "name": "pollId",
          "type": "uint256"
        }
      ],
      "name": "getTally",
      "outputs": [
        {
          "internalType": "uint32[]",
          "name": "tally",
          "type": "uint32[]"
        },
        {
          "internalType": "bool",
          "name": "finalized",
          "type": "bool"
        }
      ],
      "stateMutability": "view",
      "type": "function"
    },
    {
      "inputs": [
        {
          "internalType": "uint256",
          "name": "pollId",
          "type": "uint256"
        },
        {
          "internalType": "address",
          "name": "voter",
          "type": "address"
        }
      ],
      "name": "hasCommitted",
      "outputs": [
        {
          "internalType": "bool",
          "name": "",
          "type": "bool"
        }
      ],
      "stateMutability": "view",
      "type": "function"
    },
    {
      "inputs": [
        {
          "internalType": "uint256",
          "name": "pollId",
          "type": "uint256"
        },
        {
          "internalType": "address",
          "name": "voter",
          "type": "address"
        }
      ],
      "name": "hasRevealed",
      "outputs": [
        {
          "internalType": "bool",
          "name": "",
          "type": "bool"
        }
      ],
      "stateMutability": "view",
      "type": "function"
    },
    {
      "inputs": [],
      "name": "pollCount",
      "outputs": [
        {
          "internalType": "uint256",
          "name": "",
          "type": "uint256"
        }
      ],
      "stateMutability": "view",
      "type": "function"
    },
    {
      "inputs": [
        {
          "internalType": "uint256",
          "name": "pollId",
          "type": "uint256"
        },
        {
          "internalType": "uint8",
          "name": "optionIndex",
          "type": "uint8"
        },
        {
          "internalType": "bytes32",
          "name": "salt",
          "type": "bytes32"
        }
      ],
      "name": "reveal",
      "outputs": [],
      "stateMutability": "nonpayable",
      "type": "function"
    }
  ],
  "bytecode": "0x6080604052348015600e575f5ffd5b50610ce28061001c5f395ff3fe608060405234801561000f575f5ffd5b506004361061009b575f3560e01c8063a99ef9f511610063578063a99ef9f51461012b578063def97f0e14610164578063eb0772c9146101ba578063edeb797c146101db578063f2f0387714610204575f5ffd5b806305261aea1461009f57806316b5551d146100c9578063489ac4c6146100ec5780639207891d1461010d5780639a42f3aa14610116575b5f5ffd5b6100b26100ad366004610aa9565b610217565b60405160ff90911681526020015b60405180910390f35b6100dc6100d7366004610ac0565b6103bf565b60405190151581526020016100c0565b6100ff6100fa366004610b21565b6103ec565b6040519081526020016100c0565b6100ff60015481565b610129610124366004610b61565b610590565b005b6100dc610139366004610ac0565b5f828152602081815260408083206001600160a01b0385168452600201909152902054151592915050565b610199610172366004610aa9565b5f9081526020819052604090205467ffffffffffffffff80821692600160401b9092041690565b6040805167ffffffffffffffff9384168152929091166020830152016100c0565b6101cd6101c8366004610aa9565b61085e565b6040516100c0929190610b94565b6100b26101e9366004610aa9565b5f90815260208190526040902054600160801b900460ff1690565b610129610212366004610be9565b610903565b5f8181526020819052604081208054600160881b900460ff161561026e5760405162461bcd60e51b8152602060048201526009602482015268199a5b985b1a5e995960ba1b60448201526064015b60405180910390fd5b8054600160401b900467ffffffffffffffff164210156102c25760405162461bcd60e51b815260206004820152600f60248201526e3932bb32b0b6103737ba1037bb32b960891b6044820152606401610265565b5f805b825460ff600160801b9091048116908216101561036e578163ffffffff16836004018260ff16815481106102fb576102fb610c09565b5f918252602090912060088204015460079091166004026101000a900463ffffffff16111561036657826004018160ff168154811061033c5761033c610c09565b905f5260205f2090600891828204019190066004029054906101000a900463ffffffff1691508093505b6001016102c5565b50815460ff60881b1916600160881b17825560405160ff8416815284907f14b32513bc60303cd54741ac55d1169cbcdcf5a83e16d63a54a082bf3724999f9060200160405180910390a25050919050565b5f828152602081815260408083206001600160a01b038516845260030190915290205460ff165b92915050565b5f60028460ff1610158015610405575060088460ff1611155b61043f5760405162461bcd60e51b815260206004820152600b60248201526a626164206f7074696f6e7360a81b6044820152606401610265565b5f61045063ffffffff851642610c31565b90505f61046363ffffffff851683610c44565b905060015f815461047390610c64565b91829055505f818152602081905260409020805460ff8916600160801b810260ff60801b1967ffffffffffffffff878116600160401b026fffffffffffffffffffffffffffffffff19909516818a161794909417161783556001830180546001600160a01b031916331790559295509091908111156104f4576104f4610c7c565b60405190808252806020026020018201604052801561051d578160200160208202803683370190505b5080516105349160048401916020909101906109e9565b506040805160ff8916815267ffffffffffffffff85811660208301528416818301529051339186917fa7ea1d005bd99613e83d1f6470dfc31ca7bfef0a82981c8e40fd4d66d9a449c39181900360600190a35050509392505050565b5f838152602081905260409020805467ffffffffffffffff1642108015906105c957508054600160401b900467ffffffffffffffff1642105b6106085760405162461bcd60e51b815260206004820152601060248201526f6e6f742072657665616c20706861736560801b6044820152606401610265565b805460ff600160801b9091048116908416106106535760405162461bcd60e51b815260206004820152600a6024820152693130b21037b83a34b7b760b11b6044820152606401610265565b335f9081526002820160205260409020548061069d5760405162461bcd60e51b81526020600482015260096024820152681b9bc818dbdb5b5a5d60ba1b6044820152606401610265565b335f90815260038301602052604090205460ff16156106f15760405162461bcd60e51b815260206004820152601060248201526f185b1c9958591e481c995d99585b195960821b6044820152606401610265565b6040516001600160f81b031960f886901b166020820152602181018490526bffffffffffffffffffffffff193360601b166041820152605581018690525f906075016040516020818303038152906040528051906020012090508181146107855760405162461bcd60e51b81526020600482015260086024820152670dad2e6dac2e8c6d60c31b6044820152606401610265565b335f9081526003840160205260409020805460ff1916600190811790915560048401805460ff88169081106107bc576107bc610c09565b905f5260205f2090600891828204019190066004028282829054906101000a900463ffffffff166107ed9190610c90565b92506101000a81548163ffffffff021916908363ffffffff160217905550336001600160a01b0316867fc98953cfdaf1355ff1a9db2d4975230864cb314b479eb1b02301c652349121638760405161084e919060ff91909116815260200190565b60405180910390a3505050505050565b5f8181526020818152604080832080546004820180548451818702810187019095528085526060969593949193600160881b90930460ff16928491908301828280156108f257602002820191905f5260205f20905f905b82829054906101000a900463ffffffff1663ffffffff16815260200190600401906020826003010492830192600103820291508084116108b55790505b505050505091509250925050915091565b5f828152602081905260409020805467ffffffffffffffff1642106109585760405162461bcd60e51b815260206004820152600b60248201526a31b7b6b6b4ba1037bb32b960a91b6044820152606401610265565b335f908152600282016020526040902054156109aa5760405162461bcd60e51b8152602060048201526011602482015270185b1c9958591e4818dbdb5b5a5d1d1959607a1b6044820152606401610265565b335f8181526002830160205260408082208590555185917f452c97fab23345463f6fbb454d3bf4f408941c88abe2e79586032f5c8f9711fb91a3505050565b828054828255905f5260205f2090600701600890048101928215610a85579160200282015f5b83821115610a5357835183826101000a81548163ffffffff021916908363ffffffff1602179055509260200192600401602081600301049283019260010302610a0f565b8015610a835782816101000a81549063ffffffff0219169055600401602081600301049283019260010302610a53565b505b50610a91929150610a95565b5090565b5b80821115610a91575f8155600101610a96565b5f60208284031215610ab9575f5ffd5b5035919050565b5f5f60408385031215610ad1575f5ffd5b8235915060208301356001600160a01b0381168114610aee575f5ffd5b809150509250929050565b803560ff81168114610b09575f5ffd5b919050565b803563ffffffff81168114610b09575f5ffd5b5f5f5f60608486031215610b33575f5ffd5b610b3c84610af9565b9250610b4a60208501610b0e565b9150610b5860408501610b0e565b90509250925092565b5f5f5f60608486031215610b73575f5ffd5b83359250610b8360208501610af9565b929592945050506040919091013590565b604080825283519082018190525f9060208501906060840190835b81811015610bd357835163ffffffff16835260209384019390920191600101610baf565b5050809250505082151560208301529392505050565b5f5f60408385031215610bfa575f5ffd5b50508035926020909101359150565b634e487b7160e01b5f52603260045260245ffd5b634e487b7160e01b5f52601160045260245ffd5b808201808211156103e6576103e6610c1d565b67ffffffffffffffff81811683821601908111156103e6576103e6610c1d565b5f60018201610c7557610c75610c1d565b5060010190565b634e487b7160e01b5f52604160045260245ffd5b63ffffffff81811683821601908111156103e6576103e6610c1d56fea2646970667358221220d9803b3e2f12619497a3119cebe5120ef0ce2b32f3214914d81a1e2ea8eddfde64736f6c634300081c0033",
  "linkReferences": {},
  "deployedLinkReferences": {},
  "immutableReferences": {},
  "inputSourceName": "project/contracts/SealedVote.sol",
  "buildInfoId": "solc-0_8_28-b8a0aa8c66dd3dee5a154d931e5c4773a89d60d6"
}