{
  "_format": "hh3-artifact-1",
  "contractName": "SealedVote",
  "sourceName": "contracts/SealedVote.sol",
  "abi": [
    {
      "anonymous": false,
      "inputs": [
        {
          "indexed": true,
          "internalType": "uint256",
          "name": "pollId",
          "type": "uint256"
        },
        {
          "indexed": true,
          "internalType": "address",
          "name": "voter",
          "type": "address"
        }
      ],
      "name": "Committed",
      "type": "event"
    },
    {
      "anonymous": false,
      "inputs": [
        {
          "indexed": true,
          "internalType": "uint256",
          "name": "pollId",
          "type": "uint256"
        },
        {
          "indexed": true,
          "internalType": "address",
          "name": "creator",
          "type": "address"
        },
        {
          "indexed": false,
          "internalType": "uint8",
          "name": "numOptions",
          "type": "uint8"
        },
        {
          "indexed": false,
          "internalType": "uint64",
          "name": "commitEnd",
          "type": "uint64"
        },
        {
          "indexed": false,
          "internalType": "string",
          "name": "title",
          "type": "string"
        },
        {
          "indexed": false,
          "internalType": "string",
          "name": "description",
          "type": "string"
        }
      ],
      "name": "PollCreated",
      "type": "event"
    },
    {
      "anonymous": false,
      "inputs": [
        {
          "indexed": true,
          "internalType": "uint256",
          "name": "pollId",
          "type": "uint256"
        },
        {
          "indexed": true,
          "internalType": "address",
          "name": "voter",
          "type": "address"
        },
        {
          "indexed": false,
          "internalType": "uint8",
          "name": "optionIndex",
          "type": "uint8"
        }
      ],
      "name": "Revealed",
      "type": "event"
    },
    {
      "inputs": [
        {
          "internalType": "uint256",
          "name": "pollId",
          "type": "uint256"
        },
        {
          "internalType": "bytes32",
          "name": "commitment",
          "type": "bytes32"
        }
      ],
      "name": "commit",
      "outputs": [],
      "stateMutability": "nonpayable",
      "type": "function"
    },
    {
      "inputs": [
        {
          "internalType": "uint8",
          "name": "numOptions",
          "type": "uint8"
        },
        {
          "internalType": "uint32",
          "name": "commitSeconds",
          "type": "uint32"
        },
        {
          "internalType": "string",
          "name": "title",
          "type": "string"
        },
        {
          "internalType": "string",
          "name": "description",
          "type": "string"
        },
        {
          "internalType": "string[]",
          "name": "options",
          "type": "string[]"
        }
      ],
      "name": "createPoll",
      "outputs": [
        {
          "internalType": "uint256",
          "name": "pollId",
          "type": "uint256"
        }
      ],
      "stateMutability": "nonpayable",
      "type": "function"
    },
    {
      "inputs": [
        {
          "internalType": "uint256",
          "name": "pollId",
          "type": "uint256"
        }
      ],
      "name": "getCommitEnd",
      "outputs": [
        {
          "internalType": "uint64",
          "name": "commitEnd",
          "type": "uint64"
        }
      ],
      "stateMutability": "view",
      "type": "function"
    },
    {
      "inputs": [
        {
          "internalType": "uint256",
          "name": "pollId",
          "type": "uint256"
        }
      ],
      "name": "getCreator",
      "outputs": [
        {
          "internalType": "address",
          "name": "",
          "type": "address"
        }
      ],
      "stateMutability": "view",
      "type": "function"
    },
    {
      "inputs": [
        {
          "internalType": "uint256",
          "name": "pollId",
          "type": "uint256"
        }
      ],
      "name": "getDescription",
      "outputs": [
        {
          "internalType": "string",
          "name": "",
          "type": "string"
        }
      ],
      "stateMutability": "view",
      "type": "function"
    },
    {
      "inputs": [
        {
          "internalType": "uint256",
          "name": "pollId",
          "type": "uint256"
        }
      ],
      "name": "getNumOptions",
      "outputs": [
        {
          "internalType": "uint8",
          "name": "",
          "type": "uint8"
        }
      ],
      "stateMutability": "view",
      "type": "function"
    },
    {
      "inputs": [
        {
          "internalType": "uint256",
          "name": "pollId",
          "type": "uint256"
        }
      ],
      "name": "getOptions",
      "outputs": [
        {
          "internalType": "string[]",
          "name": "",
          "type": "string[]"
        }
      ],
      "stateMutability": "view",
      "type": "function"
    },
    {
      "inputs": [
        {
          "internalType": "uint256",
          "name": "pollId",
          "type": "uint256"
        }
      ],
      "name": "getTally",
      "outputs": [
        {
          "internalType": "uint32[]",
          "name": "tally",
          "type": "uint32[]"
        }
      ],
      "stateMutability": "view",
      "type": "function"
    },
    {
      "inputs": [
        {
          "internalType": "uint256",
          "name": "pollId",
          "type": "uint256"
        }
      ],
      "name": "getTitle",
      "outputs": [
        {
          "internalType": "string",
          "name": "",
          "type": "string"
        }
      ],
      "stateMutability": "view",
      "type": "function"
    },
    {
      "inputs": [
        {
          "internalType": "uint256",
          "name": "pollId",
          "type": "uint256"
        },
        {
          "internalType": "address",
          "name": "voter",
          "type": "address"
        }
      ],
      "name": "hasCommitted",
      "outputs": [
        {
          "internalType": "bool",
          "name": "",
          "type": "bool"
        }
      ],
      "stateMutability": "view",
      "type": "function"
    },
    {
      "inputs": [
        {
          "internalType": "uint256",
          "name": "pollId",
          "type": "uint256"
        },
        {
          "internalType": "address",
          "name": "voter",
          "type": "address"
        }
      ],
      "name": "hasRevealed",
      "outputs": [
        {
          "internalType": "bool",
          "name": "",
          "type": "bool"
        }
      ],
      "stateMutability": "view",
      "type": "function"
    },
    {
      "inputs": [],
      "name": "pollCount",
      "outputs": [
        {
          "internalType": "uint256",
          "name": "",
          "type": "uint256"
        }
      ],
      "stateMutability": "view",
      "type": "function"
    },
    {
      "inputs": [
        {
          "internalType": "uint256",
          "name": "pollId",
          "type": "uint256"
        },
        {
          "internalType": "uint8",
          "name": "optionIndex",
          "type": "uint8"
        },
        {
          "internalType": "bytes32",
          "name": "salt",
          "type": "bytes32"
        }
      ],
      "name": "reveal",
      "outputs": [],
      "stateMutability": "nonpayable",
      "type": "function"
    }
  ],
  "bytecode": "0x6080604052348015600e575f5ffd5b506122d58061001c5f395ff3fe608060405234801561000f575f5ffd5b50600436106100cd575f3560e01c80639a42f3aa1161008a578063d48e638a11610064578063d48e638a1461025b578063eb0772c91461028b578063edeb797c146102bb578063f2f03877146102eb576100cd565b80639a42f3aa146101df578063a99ef9f5146101fb578063b138fb6a1461022b576100cd565b806316b5551d146100d15780634925ec55146101015780634a8053b9146101315780638915b3fb146101615780639207891d14610191578063929a79b1146101af575b5f5ffd5b6100eb60048036038101906100e69190611117565b610307565b6040516100f8919061116f565b60405180910390f35b61011b60048036038101906101169190611188565b61036b565b6040516101289190611223565b60405180910390f35b61014b60048036038101906101469190611188565b61040e565b6040516101589190611265565b60405180910390f35b61017b60048036038101906101769190611188565b61043c565b6040516101889190611381565b60405180910390f35b610199610523565b6040516101a691906113b0565b60405180910390f35b6101c960048036038101906101c49190611188565b610529565b6040516101d69190611223565b60405180910390f35b6101f960048036038101906101f49190611432565b6105cc565b005b61021560048036038101906102109190611117565b610937565b604051610222919061116f565b60405180910390f35b610245600480360381019061024091906116c9565b610994565b60405161025291906113b0565b60405180910390f35b61027560048036038101906102709190611188565b610c7e565b60405161028291906117a3565b60405180910390f35b6102a560048036038101906102a09190611188565b610cb9565b6040516102b29190611873565b60405180910390f35b6102d560048036038101906102d09190611188565b610d4d565b6040516102e291906118a2565b60405180910390f35b610305600480360381019061030091906118bb565b610d75565b005b5f5f5f8481526020019081526020015f206005015f8373ffffffffffffffffffffffffffffffffffffffff1673ffffffffffffffffffffffffffffffffffffffff1681526020019081526020015f205f9054906101000a900460ff16905092915050565b60605f5f8381526020019081526020015f20600201805461038b90611926565b80601f01602080910402602001604051908101604052809291908181526020018280546103b790611926565b80156104025780601f106103d957610100808354040283529160200191610402565b820191905f5260205f20905b8154815290600101906020018083116103e557829003601f168201915b50505050509050919050565b5f5f5f8381526020019081526020015f205f015f9054906101000a900467ffffffffffffffff169050919050565b60605f5f8381526020019081526020015f20600301805480602002602001604051908101604052809291908181526020015f905b82821015610518578382905f5260205f2001805461048d90611926565b80601f01602080910402602001604051908101604052809291908181526020018280546104b990611926565b80156105045780601f106104db57610100808354040283529160200191610504565b820191905f5260205f20905b8154815290600101906020018083116104e757829003601f168201915b505050505081526020019060010190610470565b505050509050919050565b60015481565b60605f5f8381526020019081526020015f20600101805461054990611926565b80601f016020809104026020016040519081016040528092919081815260200182805461057590611926565b80156105c05780601f10610597576101008083540402835291602001916105c0565b820191905f5260205f20905b8154815290600101906020018083116105a357829003601f168201915b50505050509050919050565b5f5f5f8581526020019081526020015f209050805f015f9054906101000a900467ffffffffffffffff1667ffffffffffffffff16421015610642576040517f08c379a0000000000000000000000000000000000000000000000000000000008152600401610639906119a0565b60405180910390fd5b805f0160089054906101000a900460ff1660ff168360ff161061069a576040517f08c379a000000000000000000000000000000000000000000000000000000000815260040161069190611a08565b60405180910390fd5b5f816004015f3373ffffffffffffffffffffffffffffffffffffffff1673ffffffffffffffffffffffffffffffffffffffff1681526020019081526020015f205490505f5f1b8103610721576040517f08c379a000000000000000000000000000000000000000000000000000000000815260040161071890611a70565b60405180910390fd5b816005015f3373ffffffffffffffffffffffffffffffffffffffff1673ffffffffffffffffffffffffffffffffffffffff1681526020019081526020015f205f9054906101000a900460ff16156107ad576040517f08c379a00000000000000000000000000000000000000000000000000000000081526004016107a490611ad8565b60405180910390fd5b5f848433886040516020016107c59493929190611baf565b60405160208183030381529060405280519060200120905081811461081f576040517f08c379a000000000000000000000000000000000000000000000000000000000815260040161081690611c46565b60405180910390fd5b6001836005015f3373ffffffffffffffffffffffffffffffffffffffff1673ffffffffffffffffffffffffffffffffffffffff1681526020019081526020015f205f6101000a81548160ff0219169083151502179055506001836006018660ff168154811061089157610890611c64565b5b905f5260205f2090600891828204019190066004028282829054906101000a900463ffffffff166108c29190611cbe565b92506101000a81548163ffffffff021916908363ffffffff1602179055503373ffffffffffffffffffffffffffffffffffffffff16867fc98953cfdaf1355ff1a9db2d4975230864cb314b479eb1b02301c652349121638760405161092791906118a2565b60405180910390a3505050505050565b5f5f5f1b5f5f8581526020019081526020015f206004015f8473ffffffffffffffffffffffffffffffffffffffff1673ffffffffffffffffffffffffffffffffffffffff1681526020019081526020015f20541415905092915050565b5f60028660ff16101580156109ad575060088660ff1611155b6109ec576040517f08c379a00000000000000000000000000000000000000000000000000000000081526004016109e390611d3f565b60405180910390fd5b5f845111610a2f576040517f08c379a0000000000000000000000000000000000000000000000000000000008152600401610a2690611da7565b60405180910390fd5b5f835111610a72576040517f08c379a0000000000000000000000000000000000000000000000000000000008152600401610a6990611e0f565b60405180910390fd5b8560ff16825114610ab8576040517f08c379a0000000000000000000000000000000000000000000000000000000008152600401610aaf90611e77565b60405180910390fd5b5f8563ffffffff1642610acb9190611e95565b905060015f8154610adb90611ec8565b91905081905591505f5f5f8481526020019081526020015f20905081815f015f6101000a81548167ffffffffffffffff021916908367ffffffffffffffff16021790555087815f0160086101000a81548160ff021916908360ff16021790555033815f0160096101000a81548173ffffffffffffffffffffffffffffffffffffffff021916908373ffffffffffffffffffffffffffffffffffffffff16021790555085816001019081610b8e91906120af565b5084816002019081610ba091906120af565b5083816003019080519060200190610bb9929190610efa565b508760ff1667ffffffffffffffff811115610bd757610bd66114c3565b5b604051908082528060200260200182016040528015610c055781602001602082028036833780820191505090505b50816006019080519060200190610c1d929190610f51565b503373ffffffffffffffffffffffffffffffffffffffff16837fe62e431ea556bf9f6e22fcbc7aa70a5e349ba336449e5e0db86c654a44fa2e798a858a8a604051610c6b949392919061217e565b60405180910390a3505095945050505050565b5f5f5f8381526020019081526020015f205f0160099054906101000a900473ffffffffffffffffffffffffffffffffffffffff169050919050565b60605f5f8381526020019081526020015f20600601805480602002602001604051908101604052809291908181526020018280548015610d4157602002820191905f5260205f20905f905b82829054906101000a900463ffffffff1663ffffffff1681526020019060040190602082600301049283019260010382029150808411610d045790505b50505050509050919050565b5f5f5f8381526020019081526020015f205f0160089054906101000a900460ff169050919050565b5f5f5f8481526020019081526020015f209050805f015f9054906101000a900467ffffffffffffffff1667ffffffffffffffff164210610dea576040517f08c379a0000000000000000000000000000000000000000000000000000000008152600401610de190612219565b60405180910390fd5b5f5f1b816004015f3373ffffffffffffffffffffffffffffffffffffffff1673ffffffffffffffffffffffffffffffffffffffff1681526020019081526020015f205414610e6d576040517f08c379a0000000000000000000000000000000000000000000000000000000008152600401610e6490612281565b60405180910390fd5b81816004015f3373ffffffffffffffffffffffffffffffffffffffff1673ffffffffffffffffffffffffffffffffffffffff1681526020019081526020015f20819055503373ffffffffffffffffffffffffffffffffffffffff16837f452c97fab23345463f6fbb454d3bf4f408941c88abe2e79586032f5c8f9711fb60405160405180910390a3505050565b828054828255905f5260205f20908101928215610f40579160200282015b82811115610f3f578251829081610f2f91906120af565b5091602001919060010190610f18565b5b509050610f4d9190610ffe565b5090565b828054828255905f5260205f2090600701600890048101928215610fed579160200282015f5b83821115610fbb57835183826101000a81548163ffffffff021916908363ffffffff1602179055509260200192600401602081600301049283019260010302610f77565b8015610feb5782816101000a81549063ffffffff0219169055600401602081600301049283019260010302610fbb565b505b509050610ffa9190611021565b5090565b5b8082111561101d575f8181611014919061103c565b50600101610fff565b5090565b5b80821115611038575f815f905550600101611022565b5090565b50805461104890611926565b5f825580601f106110595750611076565b601f0160209004905f5260205f20908101906110759190611021565b5b50565b5f604051905090565b5f5ffd5b5f5ffd5b5f819050919050565b61109c8161108a565b81146110a6575f5ffd5b50565b5f813590506110b781611093565b92915050565b5f73ffffffffffffffffffffffffffffffffffffffff82169050919050565b5f6110e6826110bd565b9050919050565b6110f6816110dc565b8114611100575f5ffd5b50565b5f81359050611111816110ed565b92915050565b5f5f6040838503121561112d5761112c611082565b5b5f61113a858286016110a9565b925050602061114b85828601611103565b9150509250929050565b5f8115159050919050565b61116981611155565b82525050565b5f6020820190506111825f830184611160565b92915050565b5f6020828403121561119d5761119c611082565b5b5f6111aa848285016110a9565b91505092915050565b5f81519050919050565b5f82825260208201905092915050565b8281835e5f83830152505050565b5f601f19601f8301169050919050565b5f6111f5826111b3565b6111ff81856111bd565b935061120f8185602086016111cd565b611218816111db565b840191505092915050565b5f6020820190508181035f83015261123b81846111eb565b905092915050565b5f67ffffffffffffffff82169050919050565b61125f81611243565b82525050565b5f6020820190506112785f830184611256565b92915050565b5f81519050919050565b5f82825260208201905092915050565b5f819050602082019050919050565b5f82825260208201905092915050565b5f6112c1826111b3565b6112cb81856112a7565b93506112db8185602086016111cd565b6112e4816111db565b840191505092915050565b5f6112fa83836112b7565b905092915050565b5f602082019050919050565b5f6113188261127e565b6113228185611288565b93508360208202850161133485611298565b805f5b8581101561136f578484038952815161135085826112ef565b945061135b83611302565b925060208a01995050600181019050611337565b50829750879550505050505092915050565b5f6020820190508181035f830152611399818461130e565b905092915050565b6113aa8161108a565b82525050565b5f6020820190506113c35f8301846113a1565b92915050565b5f60ff82169050919050565b6113de816113c9565b81146113e8575f5ffd5b50565b5f813590506113f9816113d5565b92915050565b5f819050919050565b611411816113ff565b811461141b575f5ffd5b50565b5f8135905061142c81611408565b92915050565b5f5f5f6060848603121561144957611448611082565b5b5f611456868287016110a9565b9350506020611467868287016113eb565b92505060406114788682870161141e565b9150509250925092565b5f63ffffffff82169050919050565b61149a81611482565b81146114a4575f5ffd5b50565b5f813590506114b581611491565b92915050565b5f5ffd5b5f5ffd5b7f4e487b71000000000000000000000000000000000000000000000000000000005f52604160045260245ffd5b6114f9826111db565b810181811067ffffffffffffffff82111715611518576115176114c3565b5b80604052505050565b5f61152a611079565b905061153682826114f0565b919050565b5f67ffffffffffffffff821115611555576115546114c3565b5b61155e826111db565b9050602081019050919050565b828183375f83830152505050565b5f61158b6115868461153b565b611521565b9050828152602081018484840111156115a7576115a66114bf565b5b6115b284828561156b565b509392505050565b5f82601f8301126115ce576115cd6114bb565b5b81356115de848260208601611579565b91505092915050565b5f67ffffffffffffffff821115611601576116006114c3565b5b602082029050602081019050919050565b5f5ffd5b5f611628611623846115e7565b611521565b9050808382526020820190506020840283018581111561164b5761164a611612565b5b835b8181101561169257803567ffffffffffffffff8111156116705761166f6114bb565b5b80860161167d89826115ba565b8552602085019450505060208101905061164d565b5050509392505050565b5f82601f8301126116b0576116af6114bb565b5b81356116c0848260208601611616565b91505092915050565b5f5f5f5f5f60a086880312156116e2576116e1611082565b5b5f6116ef888289016113eb565b9550506020611700888289016114a7565b945050604086013567ffffffffffffffff81111561172157611720611086565b5b61172d888289016115ba565b935050606086013567ffffffffffffffff81111561174e5761174d611086565b5b61175a888289016115ba565b925050608086013567ffffffffffffffff81111561177b5761177a611086565b5b6117878882890161169c565b9150509295509295909350565b61179d816110dc565b82525050565b5f6020820190506117b65f830184611794565b92915050565b5f81519050919050565b5f82825260208201905092915050565b5f819050602082019050919050565b6117ee81611482565b82525050565b5f6117ff83836117e5565b60208301905092915050565b5f602082019050919050565b5f611821826117bc565b61182b81856117c6565b9350611836836117d6565b805f5b8381101561186657815161184d88826117f4565b97506118588361180b565b925050600181019050611839565b5085935050505092915050565b5f6020820190508181035f83015261188b8184611817565b905092915050565b61189c816113c9565b82525050565b5f6020820190506118b55f830184611893565b92915050565b5f5f604083850312156118d1576118d0611082565b5b5f6118de858286016110a9565b92505060206118ef8582860161141e565b9150509250929050565b7f4e487b71000000000000000000000000000000000000000000000000000000005f52602260045260245ffd5b5f600282049050600182168061193d57607f821691505b6020821081036119505761194f6118f9565b5b50919050565b7f636f6d6d6974207068617365206e6f74206f76657200000000000000000000005f82015250565b5f61198a6015836111bd565b915061199582611956565b602082019050919050565b5f6020820190508181035f8301526119b78161197e565b9050919050565b7f626164206f7074696f6e000000000000000000000000000000000000000000005f82015250565b5f6119f2600a836111bd565b91506119fd826119be565b602082019050919050565b5f6020820190508181035f830152611a1f816119e6565b9050919050565b7f6e6f20636f6d6d697400000000000000000000000000000000000000000000005f82015250565b5f611a5a6009836111bd565b9150611a6582611a26565b602082019050919050565b5f6020820190508181035f830152611a8781611a4e565b9050919050565b7f616c72656164792072657665616c6564000000000000000000000000000000005f82015250565b5f611ac26010836111bd565b9150611acd82611a8e565b602082019050919050565b5f6020820190508181035f830152611aef81611ab6565b9050919050565b5f8160f81b9050919050565b5f611b0c82611af6565b9050919050565b611b24611b1f826113c9565b611b02565b82525050565b5f819050919050565b611b44611b3f826113ff565b611b2a565b82525050565b5f8160601b9050919050565b5f611b6082611b4a565b9050919050565b5f611b7182611b56565b9050919050565b611b89611b84826110dc565b611b67565b82525050565b5f819050919050565b611ba9611ba48261108a565b611b8f565b82525050565b5f611bba8287611b13565b600182019150611bca8286611b33565b602082019150611bda8285611b78565b601482019150611bea8284611b98565b60208201915081905095945050505050565b7f6d69736d617463680000000000000000000000000000000000000000000000005f82015250565b5f611c306008836111bd565b9150611c3b82611bfc565b602082019050919050565b5f6020820190508181035f830152611c5d81611c24565b9050919050565b7f4e487b71000000000000000000000000000000000000000000000000000000005f52603260045260245ffd5b7f4e487b71000000000000000000000000000000000000000000000000000000005f52601160045260245ffd5b5f611cc882611482565b9150611cd383611482565b9250828201905063ffffffff811115611cef57611cee611c91565b5b92915050565b7f626164206f7074696f6e730000000000000000000000000000000000000000005f82015250565b5f611d29600b836111bd565b9150611d3482611cf5565b602082019050919050565b5f6020820190508181035f830152611d5681611d1d565b9050919050565b7f7469746c652072657175697265640000000000000000000000000000000000005f82015250565b5f611d91600e836111bd565b9150611d9c82611d5d565b602082019050919050565b5f6020820190508181035f830152611dbe81611d85565b9050919050565b7f6465736372697074696f6e2072657175697265640000000000000000000000005f82015250565b5f611df96014836111bd565b9150611e0482611dc5565b602082019050919050565b5f6020820190508181035f830152611e2681611ded565b9050919050565b7f6f7074696f6e73206c656e677468206d69736d617463680000000000000000005f82015250565b5f611e616017836111bd565b9150611e6c82611e2d565b602082019050919050565b5f6020820190508181035f830152611e8e81611e55565b9050919050565b5f611e9f8261108a565b9150611eaa8361108a565b9250828201905080821115611ec257611ec1611c91565b5b92915050565b5f611ed28261108a565b91507fffffffffffffffffffffffffffffffffffffffffffffffffffffffffffffffff8203611f0457611f03611c91565b5b600182019050919050565b5f819050815f5260205f209050919050565b5f6020601f8301049050919050565b5f82821b905092915050565b5f60088302611f6b7fffffffffffffffffffffffffffffffffffffffffffffffffffffffffffffffff82611f30565b611f758683611f30565b95508019841693508086168417925050509392505050565b5f819050919050565b5f611fb0611fab611fa68461108a565b611f8d565b61108a565b9050919050565b5f819050919050565b611fc983611f96565b611fdd611fd582611fb7565b848454611f3c565b825550505050565b5f5f905090565b611ff4611fe5565b611fff818484611fc0565b505050565b5b81811015612022576120175f82611fec565b600181019050612005565b5050565b601f8211156120675761203881611f0f565b61204184611f21565b81016020851015612050578190505b61206461205c85611f21565b830182612004565b50505b505050565b5f82821c905092915050565b5f6120875f198460080261206c565b1980831691505092915050565b5f61209f8383612078565b9150826002028217905092915050565b6120b8826111b3565b67ffffffffffffffff8111156120d1576120d06114c3565b5b6120db8254611926565b6120e6828285612026565b5f60209050601f831160018114612117575f8415612105578287015190505b61210f8582612094565b865550612176565b601f19841661212586611f0f565b5f5b8281101561214c57848901518255600182019150602085019450602081019050612127565b868310156121695784890151612165601f891682612078565b8355505b6001600288020188555050505b505050505050565b5f6080820190506121915f830187611893565b61219e6020830186611256565b81810360408301526121b081856111eb565b905081810360608301526121c481846111eb565b905095945050505050565b7f636f6d6d6974206f7665720000000000000000000000000000000000000000005f82015250565b5f612203600b836111bd565b915061220e826121cf565b602082019050919050565b5f6020820190508181035f830152612230816121f7565b9050919050565b7f616c726561647920636f6d6d69747465640000000000000000000000000000005f82015250565b5f61226b6011836111bd565b915061227682612237565b602082019050919050565b5f6020820190508181035f8301526122988161225f565b905091905056fea26469706673582212207e13cd428eaaa748ccf1f6392f0c670fdc1a704d6225f301e4f4b758a328fa0164736f6c634300081c0033",
  "linkReferences": {},
  "deployedLinkReferences": {},
  "immutableReferences": {},
  "inputSourceName": "project/contracts/SealedVote.sol",
  "buildInfoId": "solc-0_8_28-18341a2f29c81cc414203d402e9c4d539484eed1"
}