{"project/contracts/SealedVote.sol":{"SealedVote":{"abi":[{"anonymous":false,"inputs":[{"indexed":true,"internalType":"uint256","name":"pollId","type":"uint256"},{"indexed":true,"internalType":"address","name":"voter","type":"address"}],"name":"Committed","type":"event"},{"anonymous":false,"inputs":[{"indexed":true,"internalType":"uint256","name":"pollId","type":"uint256"},{"indexed":true,"internalType":"address","name":"creator","type":"address"},{"indexed":false,"internalType":"uint8","name":"numOptions","type":"uint8"},{"indexed":false,"internalType":"uint64","name":"commitEnd","type":"uint64"},{"indexed":false,"internalType":"string","name":"title","type":"string"},{"indexed":false,"internalType":"string","name":"description","type":"string"}],"name":"PollCreated","type":"event"},{"anonymous":false,"inputs":[{"indexed":true,"internalType":"uint256","name":"pollId","type":"uint256"},{"indexed":true,"internalType":"address","name":"voter","type":"address"},{"indexed":false,"internalType":"uint8","name":"optionIndex","type":"uint8"}],"name":"Revealed","type":"event"},{"inputs":[{"internalType":"uint256","name":"pollId","type":"uint256"},{"internalType":"bytes32","name":"commitment","type":"bytes32"}],"name":"commit","outputs":[],"stateMutability":"nonpayable","type":"function"},{"inputs":[{"internalType":"uint8","name":"numOptions","type":"uint8"},{"internalType":"uint32","name":"commitSeconds","type":"uint32"},{"internalType":"string","name":"title","type":"string"},{"internalType":"string","name":"description","type":"string"},{"internalType":"string[]","name":"options","type":"string[]"}],"name":"createPoll","outputs":[{"internalType":"uint256","name":"pollId","type":"uint256"}],"stateMutability":"nonpayable","type":"function"},{"inputs":[{"internalType":"uint256","name":"pollId","type":"uint256"}],"name":"getCommitEnd","outputs":[{"internalType":"uint64","name":"commitEnd","type":"uint64"}],"stateMutability":"view","type":"function"},{"inputs":[{"internalType":"uint256","name":"pollId","type":"uint256"}],"name":"getCreator","outputs":[{"internalType":"address","name":"","type":"address"}],"stateMutability":"view","type":"function"},{"inputs":[{"internalType":"uint256","name":"pollId","type":"uint256"}],"name":"getDescription","outputs":[{"internalType":"string","name":"","type":"string"}],"stateMutability":"view","type":"function"},{"inputs":[{"internalType":"uint256","name":"pollId","type":"uint256"}],"name":"getNumOptions","outputs":[{"internalType":"uint8","name":"","type":"uint8"}],"stateMutability":"view","type":"function"},{"inputs":[{"internalType":"uint256","name":"pollId","type":"uint256"}],"name":"getOptions","outputs":[{"internalType":"string[]","name":"","type":"string[]"}],"stateMutability":"view","type":"function"},{"inputs":[{"internalType":"uint256","name":"pollId","type":"uint256"}],"name":"getTally","outputs":[{"internalType":"uint32[]","name":"tally","type":"uint32[]"}],"stateMutability":"view","type":"function"},{"inputs":[{"internalType":"uint256","name":"pollId","type":"uint256"}],"name":"getTitle","outputs":[{"internalType":"string","name":"","type":"string"}],"stateMutability":"view","type":"function"},{"inputs":[{"internalType":"uint256","name":"pollId","type":"uint256"},{"internalType":"address","name":"voter","type":"address"}],"name":"hasCommitted","outputs":[{"internalType":"bool","name":"","type":"bool"}],"stateMutability":"view","type":"function"},{"inputs":[{"internalType":"uint256","name":"pollId","type":"uint256"},{"internalType":"address","name":"voter","type":"address"}],"name":"hasRevealed","outputs":[{"internalType":"bool","name":"","type":"bool"}],"stateMutability":"view","type":"function"},{"inputs":[],"name":"pollCount","outputs":[{"internalType":"uint256","name":"","type":"uint256"}],"stateMutability":"view","type":"function"},{"inputs":[{"internalType":"uint256","name":"pollId","type":"uint256"},{"internalType":"uint8","name":"optionIndex","type":"uint8"},{"internalType":"bytes32","name":"salt","type":"bytes32"}],"name":"reveal","outputs":[],"stateMutability":"nonpayable","type":"function"}],"evm":{"bytecode":{"linkReferences":{},"object":"6080604052348015600e575f5ffd5b506122d58061001c5f395ff3fe608060405234801561000f575f5ffd5b50600436106100cd575f3560e01c80639a42f3aa1161008a578063d48e638a11610064578063d48e638a1461025b578063eb0772c91461028b578063edeb797c146102bb578063f2f03877146102eb576100cd565b80639a42f3aa146101df578063a99ef9f5146101fb578063b138fb6a1461022b576100cd565b806316b5551d146100d15780634925ec55146101015780634a8053b9146101315780638915b3fb146101615780639207891d14610191578063929a79b1146101af575b5f5ffd5b6100eb60048036038101906100e69190611117565b610307565b6040516100f8919061116f565b60405180910390f35b61011b60048036038101906101169190611188565b61036b565b6040516101289190611223565b60405180910390f35b61014b60048036038101906101469190611188565b61040e565b6040516101589190611265565b60405180910390f35b61017b60048036038101906101769190611188565b61043c565b6040516101889190611381565b60405180910390f35b610199610523565b6040516101a691906113b0565b60405180910390f35b6101c960048036038101906101c49190611188565b610529565b6040516101d69190611223565b60405180910390f35b6101f960048036038101906101f49190611432565b6105cc565b005b61021560048036038101906102109190611117565b610937565b604051610222919061116f565b60405180910390f35b610245600480360381019061024091906116c9565b610994565b60405161025291906113b0565b60405180910390f35b61027560048036038101906102709190611188565b610c7e565b60405161028291906117a3565b60405180910390f35b6102a560048036038101906102a09190611188565b610cb9565b6040516102b29190611873565b60405180910390f35b6102d560048036038101906102d09190611188565b610d4d565b6040516102e291906118a2565b60405180910390f35b610305600480360381019061030091906118bb565b610d75565b005b5f5f5f8481526020019081526020015f206005015f8373ffffffffffffffffffffffffffffffffffffffff1673ffffffffffffffffffffffffffffffffffffffff1681526020019081526020015f205f9054906101000a900460ff16905092915050565b60605f5f8381526020019081526020015f20600201805461038b90611926565b80601f01602080910402602001604051908101604052809291908181526020018280546103b790611926565b80156104025780601f106103d957610100808354040283529160200191610402565b820191905f5260205f20905b8154815290600101906020018083116103e557829003601f168201915b50505050509050919050565b5f5f5f8381526020019081526020015f205f015f9054906101000a900467ffffffffffffffff169050919050565b60605f5f8381526020019081526020015f20600301805480602002602001604051908101604052809291908181526020015f905b82821015610518578382905f5260205f2001805461048d90611926565b80601f01602080910402602001604051908101604052809291908181526020018280546104b990611926565b80156105045780601f106104db57610100808354040283529160200191610504565b820191905f5260205f20905b8154815290600101906020018083116104e757829003601f168201915b505050505081526020019060010190610470565b505050509050919050565b60015481565b60605f5f8381526020019081526020015f20600101805461054990611926565b80601f016020809104026020016040519081016040528092919081815260200182805461057590611926565b80156105c05780601f10610597576101008083540402835291602001916105c0565b820191905f5260205f20905b8154815290600101906020018083116105a357829003601f168201915b50505050509050919050565b5f5f5f8581526020019081526020015f209050805f015f9054906101000a900467ffffffffffffffff1667ffffffffffffffff16421015610642576040517f08c379a0000000000000000000000000000000000000000000000000000000008152600401610639906119a0565b60405180910390fd5b805f0160089054906101000a900460ff1660ff168360ff161061069a576040517f08c379a000000000000000000000000000000000000000000000000000000000815260040161069190611a08565b60405180910390fd5b5f816004015f3373ffffffffffffffffffffffffffffffffffffffff1673ffffffffffffffffffffffffffffffffffffffff1681526020019081526020015f205490505f5f1b8103610721576040517f08c379a000000000000000000000000000000000000000000000000000000000815260040161071890611a70565b60405180910390fd5b816005015f3373ffffffffffffffffffffffffffffffffffffffff1673ffffffffffffffffffffffffffffffffffffffff1681526020019081526020015f205f9054906101000a900460ff16156107ad576040517f08c379a00000000000000000000000000000000000000000000000000000000081526004016107a490611ad8565b60405180910390fd5b5f848433886040516020016107c59493929190611baf565b60405160208183030381529060405280519060200120905081811461081f576040517f08c379a000000000000000000000000000000000000000000000000000000000815260040161081690611c46565b60405180910390fd5b6001836005015f3373ffffffffffffffffffffffffffffffffffffffff1673ffffffffffffffffffffffffffffffffffffffff1681526020019081526020015f205f6101000a81548160ff0219169083151502179055506001836006018660ff168154811061089157610890611c64565b5b905f5260205f2090600891828204019190066004028282829054906101000a900463ffffffff166108c29190611cbe565b92506101000a81548163ffffffff021916908363ffffffff1602179055503373ffffffffffffffffffffffffffffffffffffffff16867fc98953cfdaf1355ff1a9db2d4975230864cb314b479eb1b02301c652349121638760405161092791906118a2565b60405180910390a3505050505050565b5f5f5f1b5f5f8581526020019081526020015f206004015f8473ffffffffffffffffffffffffffffffffffffffff1673ffffffffffffffffffffffffffffffffffffffff1681526020019081526020015f20541415905092915050565b5f60028660ff16101580156109ad575060088660ff1611155b6109ec576040517f08c379a00000000000000000000000000000000000000000000000000000000081526004016109e390611d3f565b60405180910390fd5b5f845111610a2f576040517f08c379a0000000000000000000000000000000000000000000000000000000008152600401610a2690611da7565b60405180910390fd5b5f835111610a72576040517f08c379a0000000000000000000000000000000000000000000000000000000008152600401610a6990611e0f565b60405180910390fd5b8560ff16825114610ab8576040517f08c379a0000000000000000000000000000000000000000000000000000000008152600401610aaf90611e77565b60405180910390fd5b5f8563ffffffff1642610acb9190611e95565b905060015f8154610adb90611ec8565b91905081905591505f5f5f8481526020019081526020015f20905081815f015f6101000a81548167ffffffffffffffff021916908367ffffffffffffffff16021790555087815f0160086101000a81548160ff021916908360ff16021790555033815f0160096101000a81548173ffffffffffffffffffffffffffffffffffffffff021916908373ffffffffffffffffffffffffffffffffffffffff16021790555085816001019081610b8e91906120af565b5084816002019081610ba091906120af565b5083816003019080519060200190610bb9929190610efa565b508760ff1667ffffffffffffffff811115610bd757610bd66114c3565b5b604051908082528060200260200182016040528015610c055781602001602082028036833780820191505090505b50816006019080519060200190610c1d929190610f51565b503373ffffffffffffffffffffffffffffffffffffffff16837fe62e431ea556bf9f6e22fcbc7aa70a5e349ba336449e5e0db86c654a44fa2e798a858a8a604051610c6b949392919061217e565b60405180910390a3505095945050505050565b5f5f5f8381526020019081526020015f205f0160099054906101000a900473ffffffffffffffffffffffffffffffffffffffff169050919050565b60605f5f8381526020019081526020015f20600601805480602002602001604051908101604052809291908181526020018280548015610d4157602002820191905f5260205f20905f905b82829054906101000a900463ffffffff1663ffffffff1681526020019060040190602082600301049283019260010382029150808411610d045790505b50505050509050919050565b5f5f5f8381526020019081526020015f205f0160089054906101000a900460ff169050919050565b5f5f5f8481526020019081526020015f209050805f015f9054906101000a900467ffffffffffffffff1667ffffffffffffffff164210610dea576040517f08c379a0000000000000000000000000000000000000000000000000000000008152600401610de190612219565b60405180910390fd5b5f5f1b816004015f3373ffffffffffffffffffffffffffffffffffffffff1673ffffffffffffffffffffffffffffffffffffffff1681526020019081526020015f205414610e6d576040517f08c379a0000000000000000000000000000000000000000000000000000000008152600401610e6490612281565b60405180910390fd5b81816004015f3373ffffffffffffffffffffffffffffffffffffffff1673ffffffffffffffffffffffffffffffffffffffff1681526020019081526020015f20819055503373ffffffffffffffffffffffffffffffffffffffff16837f452c97fab23345463f6fbb454d3bf4f408941c88abe2e79586032f5c8f9711fb60405160405180910390a3505050565b828054828255905f5260205f20908101928215610f40579160200282015b82811115610f3f578251829081610f2f91906120af565b5091602001919060010190610f18565b5b509050610f4d9190610ffe565b5090565b828054828255905f5260205f2090600701600890048101928215610fed579160200282015f5b83821115610fbb57835183826101000a81548163ffffffff021916908363ffffffff1602179055509260200192600401602081600301049283019260010302610f77565b8015610feb5782816101000a81549063ffffffff0219169055600401602081600301049283019260010302610fbb565b505b509050610ffa9190611021565b5090565b5b8082111561101d575f8181611014919061103c565b50600101610fff565b5090565b5b80821115611038575f815f905550600101611022565b5090565b50805461104890611926565b5f825580601f106110595750611076565b601f0160209004905f5260205f20908101906110759190611021565b5b50565b5f604051905090565b5f5ffd5b5f5ffd5b5f819050919050565b61109c8161108a565b81146110a6575f5ffd5b50565b5f813590506110b781611093565b92915050565b5f73ffffffffffffffffffffffffffffffffffffffff82169050919050565b5f6110e6826110bd565b9050919050565b6110f6816110dc565b8114611100575f5ffd5b50565b5f81359050611111816110ed565b92915050565b5f5f6040838503121561112d5761112c611082565b5b5f61113a858286016110a9565b925050602061114b85828601611103565b9150509250929050565b5f8115159050919050565b61116981611155565b82525050565b5f6020820190506111825f830184611160565b92915050565b5f6020828403121561119d5761119c611082565b5b5f6111aa848285016110a9565b91505092915050565b5f81519050919050565b5f82825260208201905092915050565b8281835e5f83830152505050565b5f601f19601f8301169050919050565b5f6111f5826111b3565b6111ff81856111bd565b935061120f8185602086016111cd565b611218816111db565b840191505092915050565b5f6020820190508181035f83015261123b81846111eb565b905092915050565b5f67ffffffffffffffff82169050919050565b61125f81611243565b82525050565b5f6020820190506112785f830184611256565b92915050565b5f81519050919050565b5f82825260208201905092915050565b5f819050602082019050919050565b5f82825260208201905092915050565b5f6112c1826111b3565b6112cb81856112a7565b93506112db8185602086016111cd565b6112e4816111db565b840191505092915050565b5f6112fa83836112b7565b905092915050565b5f602082019050919050565b5f6113188261127e565b6113228185611288565b93508360208202850161133485611298565b805f5b8581101561136f578484038952815161135085826112ef565b945061135b83611302565b925060208a01995050600181019050611337565b50829750879550505050505092915050565b5f6020820190508181035f830152611399818461130e565b905092915050565b6113aa8161108a565b82525050565b5f6020820190506113c35f8301846113a1565b92915050565b5f60ff82169050919050565b6113de816113c9565b81146113e8575f5ffd5b50565b5f813590506113f9816113d5565b92915050565b5f819050919050565b611411816113ff565b811461141b575f5ffd5b50565b5f8135905061142c81611408565b92915050565b5f5f5f6060848603121561144957611448611082565b5b5f611456868287016110a9565b9350506020611467868287016113eb565b92505060406114788682870161141e565b9150509250925092565b5f63ffffffff82169050919050565b61149a81611482565b81146114a4575f5ffd5b50565b5f813590506114b581611491565b92915050565b5f5ffd5b5f5ffd5b7f4e487b71000000000000000000000000000000000000000000000000000000005f52604160045260245ffd5b6114f9826111db565b810181811067ffffffffffffffff82111715611518576115176114c3565b5b80604052505050565b5f61152a611079565b905061153682826114f0565b919050565b5f67ffffffffffffffff821115611555576115546114c3565b5b61155e826111db565b9050602081019050919050565b828183375f83830152505050565b5f61158b6115868461153b565b611521565b9050828152602081018484840111156115a7576115a66114bf565b5b6115b284828561156b565b509392505050565b5f82601f8301126115ce576115cd6114bb565b5b81356115de848260208601611579565b91505092915050565b5f67ffffffffffffffff821115611601576116006114c3565b5b602082029050602081019050919050565b5f5ffd5b5f611628611623846115e7565b611521565b9050808382526020820190506020840283018581111561164b5761164a611612565b5b835b8181101561169257803567ffffffffffffffff8111156116705761166f6114bb565b5b80860161167d89826115ba565b8552602085019450505060208101905061164d565b5050509392505050565b5f82601f8301126116b0576116af6114bb565b5b81356116c0848260208601611616565b91505092915050565b5f5f5f5f5f60a086880312156116e2576116e1611082565b5b5f6116ef888289016113eb565b9550506020611700888289016114a7565b945050604086013567ffffffffffffffff81111561172157611720611086565b5b61172d888289016115ba565b935050606086013567ffffffffffffffff81111561174e5761174d611086565b5b61175a888289016115ba565b925050608086013567ffffffffffffffff81111561177b5761177a611086565b5b6117878882890161169c565b9150509295509295909350565b61179d816110dc565b82525050565b5f6020820190506117b65f830184611794565b92915050565b5f81519050919050565b5f82825260208201905092915050565b5f819050602082019050919050565b6117ee81611482565b82525050565b5f6117ff83836117e5565b60208301905092915050565b5f602082019050919050565b5f611821826117bc565b61182b81856117c6565b9350611836836117d6565b805f5b8381101561186657815161184d88826117f4565b97506118588361180b565b925050600181019050611839565b5085935050505092915050565b5f6020820190508181035f83015261188b8184611817565b905092915050565b61189c816113c9565b82525050565b5f6020820190506118b55f830184611893565b92915050565b5f5f604083850312156118d1576118d0611082565b5b5f6118de858286016110a9565b92505060206118ef8582860161141e565b9150509250929050565b7f4e487b71000000000000000000000000000000000000000000000000000000005f52602260045260245ffd5b5f600282049050600182168061193d57607f821691505b6020821081036119505761194f6118f9565b5b50919050565b7f636f6d6d6974207068617365206e6f74206f76657200000000000000000000005f82015250565b5f61198a6015836111bd565b915061199582611956565b602082019050919050565b5f6020820190508181035f8301526119b78161197e565b9050919050565b7f626164206f7074696f6e000000000000000000000000000000000000000000005f82015250565b5f6119f2600a836111bd565b91506119fd826119be565b602082019050919050565b5f6020820190508181035f830152611a1f816119e6565b9050919050565b7f6e6f20636f6d6d697400000000000000000000000000000000000000000000005f82015250565b5f611a5a6009836111bd565b9150611a6582611a26565b602082019050919050565b5f6020820190508181035f830152611a8781611a4e565b9050919050565b7f616c72656164792072657665616c6564000000000000000000000000000000005f82015250565b5f611ac26010836111bd565b9150611acd82611a8e565b602082019050919050565b5f6020820190508181035f830152611aef81611ab6565b9050919050565b5f8160f81b9050919050565b5f611b0c82611af6565b9050919050565b611b24611b1f826113c9565b611b02565b82525050565b5f819050919050565b611b44611b3f826113ff565b611b2a565b82525050565b5f8160601b9050919050565b5f611b6082611b4a565b9050919050565b5f611b7182611b56565b9050919050565b611b89611b84826110dc565b611b67565b82525050565b5f819050919050565b611ba9611ba48261108a565b611b8f565b82525050565b5f611bba8287611b13565b600182019150611bca8286611b33565b602082019150611bda8285611b78565b601482019150611bea8284611b98565b60208201915081905095945050505050565b7f6d69736d617463680000000000000000000000000000000000000000000000005f82015250565b5f611c306008836111bd565b9150611c3b82611bfc565b602082019050919050565b5f6020820190508181035f830152611c5d81611c24565b9050919050565b7f4e487b71000000000000000000000000000000000000000000000000000000005f52603260045260245ffd5b7f4e487b71000000000000000000000000000000000000000000000000000000005f52601160045260245ffd5b5f611cc882611482565b9150611cd383611482565b9250828201905063ffffffff811115611cef57611cee611c91565b5b92915050565b7f626164206f7074696f6e730000000000000000000000000000000000000000005f82015250565b5f611d29600b836111bd565b9150611d3482611cf5565b602082019050919050565b5f6020820190508181035f830152611d5681611d1d565b9050919050565b7f7469746c652072657175697265640000000000000000000000000000000000005f82015250565b5f611d91600e836111bd565b9150611d9c82611d5d565b602082019050919050565b5f6020820190508181035f830152611dbe81611d85565b9050919050565b7f6465736372697074696f6e2072657175697265640000000000000000000000005f82015250565b5f611df96014836111bd565b9150611e0482611dc5565b602082019050919050565b5f6020820190508181035f830152611e2681611ded565b9050919050565b7f6f7074696f6e73206c656e677468206d69736d617463680000000000000000005f82015250565b5f611e616017836111bd565b9150611e6c82611e2d565b602082019050919050565b5f6020820190508181035f830152611e8e81611e55565b9050919050565b5f611e9f8261108a565b9150611eaa8361108a565b9250828201905080821115611ec257611ec1611c91565b5b92915050565b5f611ed28261108a565b91507fffffffffffffffffffffffffffffffffffffffffffffffffffffffffffffffff8203611f0457611f03611c91565b5b600182019050919050565b5f819050815f5260205f209050919050565b5f6020601f8301049050919050565b5f82821b905092915050565b5f60088302611f6b7fffffffffffffffffffffffffffffffffffffffffffffffffffffffffffffffff82611f30565b611f758683611f30565b95508019841693508086168417925050509392505050565b5f819050919050565b5f611fb0611fab611fa68461108a565b611f8d565b61108a565b9050919050565b5f819050919050565b611fc983611f96565b611fdd611fd582611fb7565b848454611f3c565b825550505050565b5f5f905090565b611ff4611fe5565b611fff818484611fc0565b505050565b5b81811015612022576120175f82611fec565b600181019050612005565b5050565b601f8211156120675761203881611f0f565b61204184611f21565b81016020851015612050578190505b61206461205c85611f21565b830182612004565b50505b505050565b5f82821c905092915050565b5f6120875f198460080261206c565b1980831691505092915050565b5f61209f8383612078565b9150826002028217905092915050565b6120b8826111b3565b67ffffffffffffffff8111156120d1576120d06114c3565b5b6120db8254611926565b6120e6828285612026565b5f60209050601f831160018114612117575f8415612105578287015190505b61210f8582612094565b865550612176565b601f19841661212586611f0f565b5f5b8281101561214c57848901518255600182019150602085019450602081019050612127565b868310156121695784890151612165601f891682612078565b8355505b6001600288020188555050505b505050505050565b5f6080820190506121915f830187611893565b61219e6020830186611256565b81810360408301526121b081856111eb565b905081810360608301526121c481846111eb565b905095945050505050565b7f636f6d6d6974206f7665720000000000000000000000000000000000000000005f82015250565b5f612203600b836111bd565b915061220e826121cf565b602082019050919050565b5f6020820190508181035f830152612230816121f7565b9050919050565b7f616c726561647920636f6d6d69747465640000000000000000000000000000005f82015250565b5f61226b6011836111bd565b915061227682612237565b602082019050919050565b5f6020820190508181035f8301526122988161225f565b905091905056fea26469706673582212207e13cd428eaaa748ccf1f6392f0c670fdc1a704d6225f301e4f4b758a328fa0164736f6c634300081c0033","opcodes":"PUSH1 0x80 PUSH1 0x40 MSTORE CALLVALUE DUP1 ISZERO PUSH1 0xE JUMPI PUSH0 PUSH0 REVERT JUMPDEST POP PUSH2 0x22D5 DUP1 PUSH2 0x1C PUSH0 CODECOPY PUSH0 RETURN INVALID PUSH1 0x80 PUSH1 0x40 MSTORE CALLVALUE DUP1 ISZERO PUSH2 0xF JUMPI PUSH0 PUSH0 REVERT JUMPDEST POP PUSH1 0x4 CALLDATASIZE LT PUSH2 0xCD JUMPI PUSH0 CALLDATALOAD PUSH1 0xE0 SHR DUP1 PUSH4 0x9A42F3AA GT PUSH2 0x8A JUMPI DUP1 PUSH4 0xD48E638A GT PUSH2 0x64 JUMPI DUP1 PUSH4 0xD48E638A EQ PUSH2 0x25B JUMPI DUP1 PUSH4 0xEB0772C9 EQ PUSH2 0x28B JUMPI DUP1 PUSH4 0xEDEB797C EQ PUSH2 0x2BB JUMPI DUP1 PUSH4 0xF2F03877 EQ PUSH2 0x2EB JUMPI PUSH2 0xCD JUMP JUMPDEST DUP1 PUSH4 0x9A42F3AA EQ PUSH2 0x1DF JUMPI DUP1 PUSH4 0xA99EF9F5 EQ PUSH2 0x1FB JUMPI DUP1 PUSH4 0xB138FB6A EQ PUSH2 0x22B JUMPI PUSH2 0xCD JUMP JUMPDEST DUP1 PUSH4 0x16B5551D EQ PUSH2 0xD1 JUMPI DUP1 PUSH4 0x4925EC55 EQ PUSH2 0x101 JUMPI DUP1 PUSH4 0x4A8053B9 EQ PUSH2 0x131 JUMPI DUP1 PUSH4 0x8915B3FB EQ PUSH2 0x161 JUMPI DUP1 PUSH4 0x9207891D EQ PUSH2 0x191 JUMPI DUP1 PUSH4 0x929A79B1 EQ PUSH2 0x1AF JUMPI JUMPDEST PUSH0 PUSH0 REVERT JUMPDEST PUSH2 0xEB PUSH1 0x4 DUP1 CALLDATASIZE SUB DUP2 ADD SWAP1 PUSH2 0xE6 SWAP2 SWAP1 PUSH2 0x1117 JUMP JUMPDEST PUSH2 0x307 JUMP JUMPDEST PUSH1 0x40 MLOAD PUSH2 0xF8 SWAP2 SWAP1 PUSH2 0x116F JUMP JUMPDEST PUSH1 0x40 MLOAD DUP1 SWAP2 SUB SWAP1 RETURN JUMPDEST PUSH2 0x11B PUSH1 0x4 DUP1 CALLDATASIZE SUB DUP2 ADD SWAP1 PUSH2 0x116 SWAP2 SWAP1 PUSH2 0x1188 JUMP JUMPDEST PUSH2 0x36B JUMP JUMPDEST PUSH1 0x40 MLOAD PUSH2 0x128 SWAP2 SWAP1 PUSH2 0x1223 JUMP JUMPDEST PUSH1 0x40 MLOAD DUP1 SWAP2 SUB SWAP1 RETURN JUMPDEST PUSH2 0x14B PUSH1 0x4 DUP1 CALLDATASIZE SUB DUP2 ADD SWAP1 PUSH2 0x146 SWAP2 SWAP1 PUSH2 0x1188 JUMP JUMPDEST PUSH2 0x40E JUMP JUMPDEST PUSH1 0x40 MLOAD PUSH2 0x158 SWAP2 SWAP1 PUSH2 0x1265 JUMP JUMPDEST PUSH1 0x40 MLOAD DUP1 SWAP2 SUB SWAP1 RETURN JUMPDEST PUSH2 0x17B PUSH1 0x4 DUP1 CALLDATASIZE SUB DUP2 ADD SWAP1 PUSH2 0x176 SWAP2 SWAP1 PUSH2 0x1188 JUMP JUMPDEST PUSH2 0x43C JUMP JUMPDEST PUSH1 0x40 MLOAD PUSH2 0x188 SWAP2 SWAP1 PUSH2 0x1381 JUMP JUMPDEST PUSH1 0x40 MLOAD DUP1 SWAP2 SUB SWAP1 RETURN JUMPDEST PUSH2 0x199 PUSH2 0x523 JUMP JUMPDEST PUSH1 0x40 MLOAD PUSH2 0x1A6 SWAP2 SWAP1 PUSH2 0x13B0 JUMP JUMPDEST PUSH1 0x40 MLOAD DUP1 SWAP2 SUB SWAP1 RETURN JUMPDEST PUSH2 0x1C9 PUSH1 0x4 DUP1 CALLDATASIZE SUB DUP2 ADD SWAP1 PUSH2 0x1C4 SWAP2 SWAP1 PUSH2 0x1188 JUMP JUMPDEST PUSH2 0x529 JUMP JUMPDEST PUSH1 0x40 MLOAD PUSH2 0x1D6 SWAP2 SWAP1 PUSH2 0x1223 JUMP JUMPDEST PUSH1 0x40 MLOAD DUP1 SWAP2 SUB SWAP1 RETURN JUMPDEST PUSH2 0x1F9 PUSH1 0x4 DUP1 CALLDATASIZE SUB DUP2 ADD SWAP1 PUSH2 0x1F4 SWAP2 SWAP1 PUSH2 0x1432 JUMP JUMPDEST PUSH2 0x5CC JUMP JUMPDEST STOP JUMPDEST PUSH2 0x215 PUSH1 0x4 DUP1 CALLDATASIZE SUB DUP2 ADD SWAP1 PUSH2 0x210 SWAP2 SWAP1 PUSH2 0x1117 JUMP JUMPDEST PUSH2 0x937 JUMP JUMPDEST PUSH1 0x40 MLOAD PUSH2 0x222 SWAP2 SWAP1 PUSH2 0x116F JUMP JUMPDEST PUSH1 0x40 MLOAD DUP1 SWAP2 SUB SWAP1 RETURN JUMPDEST PUSH2 0x245 PUSH1 0x4 DUP1 CALLDATASIZE SUB DUP2 ADD SWAP1 PUSH2 0x240 SWAP2 SWAP1 PUSH2 0x16C9 JUMP JUMPDEST PUSH2 0x994 JUMP JUMPDEST PUSH1 0x40 MLOAD PUSH2 0x252 SWAP2 SWAP1 PUSH2 0x13B0 JUMP JUMPDEST PUSH1 0x40 MLOAD DUP1 SWAP2 SUB SWAP1 RETURN JUMPDEST PUSH2 0x275 PUSH1 0x4 DUP1 CALLDATASIZE SUB DUP2 ADD SWAP1 PUSH2 0x270 SWAP2 SWAP1 PUSH2 0x1188 JUMP JUMPDEST PUSH2 0xC7E JUMP JUMPDEST PUSH1 0x40 MLOAD PUSH2 0x282 SWAP2 SWAP1 PUSH2 0x17A3 JUMP JUMPDEST PUSH1 0x40 MLOAD DUP1 SWAP2 SUB SWAP1 RETURN JUMPDEST PUSH2 0x2A5 PUSH1 0x4 DUP1 CALLDATASIZE SUB DUP2 ADD SWAP1 PUSH2 0x2A0 SWAP2 SWAP1 PUSH2 0x1188 JUMP JUMPDEST PUSH2 0xCB9 JUMP JUMPDEST PUSH1 0x40 MLOAD PUSH2 0x2B2 SWAP2 SWAP1 PUSH2 0x1873 JUMP JUMPDEST PUSH1 0x40 MLOAD DUP1 SWAP2 SUB SWAP1 RETURN JUMPDEST PUSH2 0x2D5 PUSH1 0x4 DUP1 CALLDATASIZE SUB DUP2 ADD SWAP1 PUSH2 0x2D0 SWAP2 SWAP1 PUSH2 0x1188 JUMP JUMPDEST PUSH2 0xD4D JUMP JUMPDEST PUSH1 0x40 MLOAD PUSH2 0x2E2 SWAP2 SWAP1 PUSH2 0x18A2 JUMP JUMPDEST PUSH1 0x40 MLOAD DUP1 SWAP2 SUB SWAP1 RETURN JUMPDEST PUSH2 0x305 PUSH1 0x4 DUP1 CALLDATASIZE SUB DUP2 ADD SWAP1 PUSH2 0x300 SWAP2 SWAP1 PUSH2 0x18BB JUMP JUMPDEST PUSH2 0xD75 JUMP JUMPDEST STOP JUMPDEST PUSH0 PUSH0 PUSH0 DUP5 DUP2 MSTORE PUSH1 0x20 ADD SWAP1 DUP2 MSTORE PUSH1 0x20 ADD PUSH0 KECCAK256 PUSH1 0x5 ADD PUSH0 DUP4 PUSH20 0xFFFFFFFFFFFFFFFFFFFFFFFFFFFFFFFFFFFFFFFF AND PUSH20 0xFFFFFFFFFFFFFFFFFFFFFFFFFFFFFFFFFFFFFFFF AND DUP2 MSTORE PUSH1 0x20 ADD SWAP1 DUP2 MSTORE PUSH1 0x20 ADD PUSH0 KECCAK256 PUSH0 SWAP1 SLOAD SWAP1 PUSH2 0x100 EXP SWAP1 DIV PUSH1 0xFF AND SWAP1 POP SWAP3 SWAP2 POP POP JUMP JUMPDEST PUSH1 0x60 PUSH0 PUSH0 DUP4 DUP2 MSTORE PUSH1 0x20 ADD SWAP1 DUP2 MSTORE PUSH1 0x20 ADD PUSH0 KECCAK256 PUSH1 0x2 ADD DUP1 SLOAD PUSH2 0x38B SWAP1 PUSH2 0x1926 JUMP JUMPDEST DUP1 PUSH1 0x1F ADD PUSH1 0x20 DUP1 SWAP2 DIV MUL PUSH1 0x20 ADD PUSH1 0x40 MLOAD SWAP1 DUP2 ADD PUSH1 0x40 MSTORE DUP1 SWAP3 SWAP2 SWAP1 DUP2 DUP2 MSTORE PUSH1 0x20 ADD DUP3 DUP1 SLOAD PUSH2 0x3B7 SWAP1 PUSH2 0x1926 JUMP JUMPDEST DUP1 ISZERO PUSH2 0x402 JUMPI DUP1 PUSH1 0x1F LT PUSH2 0x3D9 JUMPI PUSH2 0x100 DUP1 DUP4 SLOAD DIV MUL DUP4 MSTORE SWAP2 PUSH1 0x20 ADD SWAP2 PUSH2 0x402 JUMP JUMPDEST DUP3 ADD SWAP2 SWAP1 PUSH0 MSTORE PUSH1 0x20 PUSH0 KECCAK256 SWAP1 JUMPDEST DUP2 SLOAD DUP2 MSTORE SWAP1 PUSH1 0x1 ADD SWAP1 PUSH1 0x20 ADD DUP1 DUP4 GT PUSH2 0x3E5 JUMPI DUP3 SWAP1 SUB PUSH1 0x1F AND DUP3 ADD SWAP2 JUMPDEST POP POP POP POP POP SWAP1 POP SWAP2 SWAP1 POP JUMP JUMPDEST PUSH0 PUSH0 PUSH0 DUP4 DUP2 MSTORE PUSH1 0x20 ADD SWAP1 DUP2 MSTORE PUSH1 0x20 ADD PUSH0 KECCAK256 PUSH0 ADD PUSH0 SWAP1 SLOAD SWAP1 PUSH2 0x100 EXP SWAP1 DIV PUSH8 0xFFFFFFFFFFFFFFFF AND SWAP1 POP SWAP2 SWAP1 POP JUMP JUMPDEST PUSH1 0x60 PUSH0 PUSH0 DUP4 DUP2 MSTORE PUSH1 0x20 ADD SWAP1 DUP2 MSTORE PUSH1 0x20 ADD PUSH0 KECCAK256 PUSH1 0x3 ADD DUP1 SLOAD DUP1 PUSH1 0x20 MUL PUSH1 0x20 ADD PUSH1 0x40 MLOAD SWAP1 DUP2 ADD PUSH1 0x40 MSTORE DUP1 SWAP3 SWAP2 SWAP1 DUP2 DUP2 MSTORE PUSH1 0x20 ADD PUSH0 SWAP1 JUMPDEST DUP3 DUP3 LT ISZERO PUSH2 0x518 JUMPI DUP4 DUP3 SWAP1 PUSH0 MSTORE PUSH1 0x20 PUSH0 KECCAK256 ADD DUP1 SLOAD PUSH2 0x48D SWAP1 PUSH2 0x1926 JUMP JUMPDEST DUP1 PUSH1 0x1F ADD PUSH1 0x20 DUP1 SWAP2 DIV MUL PUSH1 0x20 ADD PUSH1 0x40 MLOAD SWAP1 DUP2 ADD PUSH1 0x40 MSTORE DUP1 SWAP3 SWAP2 SWAP1 DUP2 DUP2 MSTORE PUSH1 0x20 ADD DUP3 DUP1 SLOAD PUSH2 0x4B9 SWAP1 PUSH2 0x1926 JUMP JUMPDEST DUP1 ISZERO PUSH2 0x504 JUMPI DUP1 PUSH1 0x1F LT PUSH2 0x4DB JUMPI PUSH2 0x100 DUP1 DUP4 SLOAD DIV MUL DUP4 MSTORE SWAP2 PUSH1 0x20 ADD SWAP2 PUSH2 0x504 JUMP JUMPDEST DUP3 ADD SWAP2 SWAP1 PUSH0 MSTORE PUSH1 0x20 PUSH0 KECCAK256 SWAP1 JUMPDEST DUP2 SLOAD DUP2 MSTORE SWAP1 PUSH1 0x1 ADD SWAP1 PUSH1 0x20 ADD DUP1 DUP4 GT PUSH2 0x4E7 JUMPI DUP3 SWAP1 SUB PUSH1 0x1F AND DUP3 ADD SWAP2 JUMPDEST POP POP POP POP POP DUP2 MSTORE PUSH1 0x20 ADD SWAP1 PUSH1 0x1 ADD SWAP1 PUSH2 0x470 JUMP JUMPDEST POP POP POP POP SWAP1 POP SWAP2 SWAP1 POP JUMP JUMPDEST PUSH1 0x1 SLOAD DUP2 JUMP JUMPDEST PUSH1 0x60 PUSH0 PUSH0 DUP4 DUP2 MSTORE PUSH1 0x20 ADD SWAP1 DUP2 MSTORE PUSH1 0x20 ADD PUSH0 KECCAK256 PUSH1 0x1 ADD DUP1 SLOAD PUSH2 0x549 SWAP1 PUSH2 0x1926 JUMP JUMPDEST DUP1 PUSH1 0x1F ADD PUSH1 0x20 DUP1 SWAP2 DIV MUL PUSH1 0x20 ADD PUSH1 0x40 MLOAD SWAP1 DUP2 ADD PUSH1 0x40 MSTORE DUP1 SWAP3 SWAP2 SWAP1 DUP2 DUP2 MSTORE PUSH1 0x20 ADD DUP3 DUP1 SLOAD PUSH2 0x575 SWAP1 PUSH2 0x1926 JUMP JUMPDEST DUP1 ISZERO PUSH2 0x5C0 JUMPI DUP1 PUSH1 0x1F LT PUSH2 0x597 JUMPI PUSH2 0x100 DUP1 DUP4 SLOAD DIV MUL DUP4 MSTORE SWAP2 PUSH1 0x20 ADD SWAP2 PUSH2 0x5C0 JUMP JUMPDEST DUP3 ADD SWAP2 SWAP1 PUSH0 MSTORE PUSH1 0x20 PUSH0 KECCAK256 SWAP1 JUMPDEST DUP2 SLOAD DUP2 MSTORE SWAP1 PUSH1 0x1 ADD SWAP1 PUSH1 0x20 ADD DUP1 DUP4 GT PUSH2 0x5A3 JUMPI DUP3 SWAP1 SUB PUSH1 0x1F AND DUP3 ADD SWAP2 JUMPDEST POP POP POP POP POP SWAP1 POP SWAP2 SWAP1 POP JUMP JUMPDEST PUSH0 PUSH0 PUSH0 DUP6 DUP2 MSTORE PUSH1 0x20 ADD SWAP1 DUP2 MSTORE PUSH1 0x20 ADD PUSH0 KECCAK256 SWAP1 POP DUP1 PUSH0 ADD PUSH0 SWAP1 SLOAD SWAP1 PUSH2 0x100 EXP SWAP1 DIV PUSH8 0xFFFFFFFFFFFFFFFF AND PUSH8 0xFFFFFFFFFFFFFFFF AND TIMESTAMP LT ISZERO PUSH2 0x642 JUMPI PUSH1 0x40 MLOAD PUSH32 0x8C379A000000000000000000000000000000000000000000000000000000000 DUP2 MSTORE PUSH1 0x4 ADD PUSH2 0x639 SWAP1 PUSH2 0x19A0 JUMP JUMPDEST PUSH1 0x40 MLOAD DUP1 SWAP2 SUB SWAP1 REVERT JUMPDEST DUP1 PUSH0 ADD PUSH1 0x8 SWAP1 SLOAD SWAP1 PUSH2 0x100 EXP SWAP1 DIV PUSH1 0xFF AND PUSH1 0xFF AND DUP4 PUSH1 0xFF AND LT PUSH2 0x69A JUMPI PUSH1 0x40 MLOAD PUSH32 0x8C379A000000000000000000000000000000000000000000000000000000000 DUP2 MSTORE PUSH1 0x4 ADD PUSH2 0x691 SWAP1 PUSH2 0x1A08 JUMP JUMPDEST PUSH1 0x40 MLOAD DUP1 SWAP2 SUB SWAP1 REVERT JUMPDEST PUSH0 DUP2 PUSH1 0x4 ADD PUSH0 CALLER PUSH20 0xFFFFFFFFFFFFFFFFFFFFFFFFFFFFFFFFFFFFFFFF AND PUSH20 0xFFFFFFFFFFFFFFFFFFFFFFFFFFFFFFFFFFFFFFFF AND DUP2 MSTORE PUSH1 0x20 ADD SWAP1 DUP2 MSTORE PUSH1 0x20 ADD PUSH0 KECCAK256 SLOAD SWAP1 POP PUSH0 PUSH0 SHL DUP2 SUB PUSH2 0x721 JUMPI PUSH1 0x40 MLOAD PUSH32 0x8C379A000000000000000000000000000000000000000000000000000000000 DUP2 MSTORE PUSH1 0x4 ADD PUSH2 0x718 SWAP1 PUSH2 0x1A70 JUMP JUMPDEST PUSH1 0x40 MLOAD DUP1 SWAP2 SUB SWAP1 REVERT JUMPDEST DUP2 PUSH1 0x5 ADD PUSH0 CALLER PUSH20 0xFFFFFFFFFFFFFFFFFFFFFFFFFFFFFFFFFFFFFFFF AND PUSH20 0xFFFFFFFFFFFFFFFFFFFFFFFFFFFFFFFFFFFFFFFF AND DUP2 MSTORE PUSH1 0x20 ADD SWAP1 DUP2 MSTORE PUSH1 0x20 ADD PUSH0 KECCAK256 PUSH0 SWAP1 SLOAD SWAP1 PUSH2 0x100 EXP SWAP1 DIV PUSH1 0xFF AND ISZERO PUSH2 0x7AD JUMPI PUSH1 0x40 MLOAD PUSH32 0x8C379A000000000000000000000000000000000000000000000000000000000 DUP2 MSTORE PUSH1 0x4 ADD PUSH2 0x7A4 SWAP1 PUSH2 0x1AD8 JUMP JUMPDEST PUSH1 0x40 MLOAD DUP1 SWAP2 SUB SWAP1 REVERT JUMPDEST PUSH0 DUP5 DUP5 CALLER DUP9 PUSH1 0x40 MLOAD PUSH1 0x20 ADD PUSH2 0x7C5 SWAP5 SWAP4 SWAP3 SWAP2 SWAP1 PUSH2 0x1BAF JUMP JUMPDEST PUSH1 0x40 MLOAD PUSH1 0x20 DUP2 DUP4 SUB SUB DUP2 MSTORE SWAP1 PUSH1 0x40 MSTORE DUP1 MLOAD SWAP1 PUSH1 0x20 ADD KECCAK256 SWAP1 POP DUP2 DUP2 EQ PUSH2 0x81F JUMPI PUSH1 0x40 MLOAD PUSH32 0x8C379A000000000000000000000000000000000000000000000000000000000 DUP2 MSTORE PUSH1 0x4 ADD PUSH2 0x816 SWAP1 PUSH2 0x1C46 JUMP JUMPDEST PUSH1 0x40 MLOAD DUP1 SWAP2 SUB SWAP1 REVERT JUMPDEST PUSH1 0x1 DUP4 PUSH1 0x5 ADD PUSH0 CALLER PUSH20 0xFFFFFFFFFFFFFFFFFFFFFFFFFFFFFFFFFFFFFFFF AND PUSH20 0xFFFFFFFFFFFFFFFFFFFFFFFFFFFFFFFFFFFFFFFF AND DUP2 MSTORE PUSH1 0x20 ADD SWAP1 DUP2 MSTORE PUSH1 0x20 ADD PUSH0 KECCAK256 PUSH0 PUSH2 0x100 EXP DUP2 SLOAD DUP2 PUSH1 0xFF MUL NOT AND SWAP1 DUP4 ISZERO ISZERO MUL OR SWAP1 SSTORE POP PUSH1 0x1 DUP4 PUSH1 0x6 ADD DUP7 PUSH1 0xFF AND DUP2 SLOAD DUP2 LT PUSH2 0x891 JUMPI PUSH2 0x890 PUSH2 0x1C64 JUMP JUMPDEST JUMPDEST SWAP1 PUSH0 MSTORE PUSH1 0x20 PUSH0 KECCAK256 SWAP1 PUSH1 0x8 SWAP2 DUP3 DUP3 DIV ADD SWAP2 SWAP1 MOD PUSH1 0x4 MUL DUP3 DUP3 DUP3 SWAP1 SLOAD SWAP1 PUSH2 0x100 EXP SWAP1 DIV PUSH4 0xFFFFFFFF AND PUSH2 0x8C2 SWAP2 SWAP1 PUSH2 0x1CBE JUMP JUMPDEST SWAP3 POP PUSH2 0x100 EXP DUP2 SLOAD DUP2 PUSH4 0xFFFFFFFF MUL NOT AND SWAP1 DUP4 PUSH4 0xFFFFFFFF AND MUL OR SWAP1 SSTORE POP CALLER PUSH20 0xFFFFFFFFFFFFFFFFFFFFFFFFFFFFFFFFFFFFFFFF AND DUP7 PUSH32 0xC98953CFDAF1355FF1A9DB2D4975230864CB314B479EB1B02301C65234912163 DUP8 PUSH1 0x40 MLOAD PUSH2 0x927 SWAP2 SWAP1 PUSH2 0x18A2 JUMP JUMPDEST PUSH1 0x40 MLOAD DUP1 SWAP2 SUB SWAP1 LOG3 POP POP POP POP POP POP JUMP JUMPDEST PUSH0 PUSH0 PUSH0 SHL PUSH0 PUSH0 DUP6 DUP2 MSTORE PUSH1 0x20 ADD SWAP1 DUP2 MSTORE PUSH1 0x20 ADD PUSH0 KECCAK256 PUSH1 0x4 ADD PUSH0 DUP5 PUSH20 0xFFFFFFFFFFFFFFFFFFFFFFFFFFFFFFFFFFFFFFFF AND PUSH20 0xFFFFFFFFFFFFFFFFFFFFFFFFFFFFFFFFFFFFFFFF AND DUP2 MSTORE PUSH1 0x20 ADD SWAP1 DUP2 MSTORE PUSH1 0x20 ADD PUSH0 KECCAK256 SLOAD EQ ISZERO SWAP1 POP SWAP3 SWAP2 POP POP JUMP JUMPDEST PUSH0 PUSH1 0x2 DUP7 PUSH1 0xFF AND LT ISZERO DUP1 ISZERO PUSH2 0x9AD JUMPI POP PUSH1 0x8 DUP7 PUSH1 0xFF AND GT ISZERO JUMPDEST PUSH2 0x9EC JUMPI PUSH1 0x40 MLOAD PUSH32 0x8C379A000000000000000000000000000000000000000000000000000000000 DUP2 MSTORE PUSH1 0x4 ADD PUSH2 0x9E3 SWAP1 PUSH2 0x1D3F JUMP JUMPDEST PUSH1 0x40 MLOAD DUP1 SWAP2 SUB SWAP1 REVERT JUMPDEST PUSH0 DUP5 MLOAD GT PUSH2 0xA2F JUMPI PUSH1 0x40 MLOAD PUSH32 0x8C379A000000000000000000000000000000000000000000000000000000000 DUP2 MSTORE PUSH1 0x4 ADD PUSH2 0xA26 SWAP1 PUSH2 0x1DA7 JUMP JUMPDEST PUSH1 0x40 MLOAD DUP1 SWAP2 SUB SWAP1 REVERT JUMPDEST PUSH0 DUP4 MLOAD GT PUSH2 0xA72 JUMPI PUSH1 0x40 MLOAD PUSH32 0x8C379A000000000000000000000000000000000000000000000000000000000 DUP2 MSTORE PUSH1 0x4 ADD PUSH2 0xA69 SWAP1 PUSH2 0x1E0F JUMP JUMPDEST PUSH1 0x40 MLOAD DUP1 SWAP2 SUB SWAP1 REVERT JUMPDEST DUP6 PUSH1 0xFF AND DUP3 MLOAD EQ PUSH2 0xAB8 JUMPI PUSH1 0x40 MLOAD PUSH32 0x8C379A000000000000000000000000000000000000000000000000000000000 DUP2 MSTORE PUSH1 0x4 ADD PUSH2 0xAAF SWAP1 PUSH2 0x1E77 JUMP JUMPDEST PUSH1 0x40 MLOAD DUP1 SWAP2 SUB SWAP1 REVERT JUMPDEST PUSH0 DUP6 PUSH4 0xFFFFFFFF AND TIMESTAMP PUSH2 0xACB SWAP2 SWAP1 PUSH2 0x1E95 JUMP JUMPDEST SWAP1 POP PUSH1 0x1 PUSH0 DUP2 SLOAD PUSH2 0xADB SWAP1 PUSH2 0x1EC8 JUMP JUMPDEST SWAP2 SWAP1 POP DUP2 SWAP1 SSTORE SWAP2 POP PUSH0 PUSH0 PUSH0 DUP5 DUP2 MSTORE PUSH1 0x20 ADD SWAP1 DUP2 MSTORE PUSH1 0x20 ADD PUSH0 KECCAK256 SWAP1 POP DUP2 DUP2 PUSH0 ADD PUSH0 PUSH2 0x100 EXP DUP2 SLOAD DUP2 PUSH8 0xFFFFFFFFFFFFFFFF MUL NOT AND SWAP1 DUP4 PUSH8 0xFFFFFFFFFFFFFFFF AND MUL OR SWAP1 SSTORE POP DUP8 DUP2 PUSH0 ADD PUSH1 0x8 PUSH2 0x100 EXP DUP2 SLOAD DUP2 PUSH1 0xFF MUL NOT AND SWAP1 DUP4 PUSH1 0xFF AND MUL OR SWAP1 SSTORE POP CALLER DUP2 PUSH0 ADD PUSH1 0x9 PUSH2 0x100 EXP DUP2 SLOAD DUP2 PUSH20 0xFFFFFFFFFFFFFFFFFFFFFFFFFFFFFFFFFFFFFFFF MUL NOT AND SWAP1 DUP4 PUSH20 0xFFFFFFFFFFFFFFFFFFFFFFFFFFFFFFFFFFFFFFFF AND MUL OR SWAP1 SSTORE POP DUP6 DUP2 PUSH1 0x1 ADD SWAP1 DUP2 PUSH2 0xB8E SWAP2 SWAP1 PUSH2 0x20AF JUMP JUMPDEST POP DUP5 DUP2 PUSH1 0x2 ADD SWAP1 DUP2 PUSH2 0xBA0 SWAP2 SWAP1 PUSH2 0x20AF JUMP JUMPDEST POP DUP4 DUP2 PUSH1 0x3 ADD SWAP1 DUP1 MLOAD SWAP1 PUSH1 0x20 ADD SWAP1 PUSH2 0xBB9 SWAP3 SWAP2 SWAP1 PUSH2 0xEFA JUMP JUMPDEST POP DUP8 PUSH1 0xFF AND PUSH8 0xFFFFFFFFFFFFFFFF DUP2 GT ISZERO PUSH2 0xBD7 JUMPI PUSH2 0xBD6 PUSH2 0x14C3 JUMP JUMPDEST JUMPDEST PUSH1 0x40 MLOAD SWAP1 DUP1 DUP3 MSTORE DUP1 PUSH1 0x20 MUL PUSH1 0x20 ADD DUP3 ADD PUSH1 0x40 MSTORE DUP1 ISZERO PUSH2 0xC05 JUMPI DUP2 PUSH1 0x20 ADD PUSH1 0x20 DUP3 MUL DUP1 CALLDATASIZE DUP4 CALLDATACOPY DUP1 DUP3 ADD SWAP2 POP POP SWAP1 POP JUMPDEST POP DUP2 PUSH1 0x6 ADD SWAP1 DUP1 MLOAD SWAP1 PUSH1 0x20 ADD SWAP1 PUSH2 0xC1D SWAP3 SWAP2 SWAP1 PUSH2 0xF51 JUMP JUMPDEST POP CALLER PUSH20 0xFFFFFFFFFFFFFFFFFFFFFFFFFFFFFFFFFFFFFFFF AND DUP4 PUSH32 0xE62E431EA556BF9F6E22FCBC7AA70A5E349BA336449E5E0DB86C654A44FA2E79 DUP11 DUP6 DUP11 DUP11 PUSH1 0x40 MLOAD PUSH2 0xC6B SWAP5 SWAP4 SWAP3 SWAP2 SWAP1 PUSH2 0x217E JUMP JUMPDEST PUSH1 0x40 MLOAD DUP1 SWAP2 SUB SWAP1 LOG3 POP POP SWAP6 SWAP5 POP POP POP POP POP JUMP JUMPDEST PUSH0 PUSH0 PUSH0 DUP4 DUP2 MSTORE PUSH1 0x20 ADD SWAP1 DUP2 MSTORE PUSH1 0x20 ADD PUSH0 KECCAK256 PUSH0 ADD PUSH1 0x9 SWAP1 SLOAD SWAP1 PUSH2 0x100 EXP SWAP1 DIV PUSH20 0xFFFFFFFFFFFFFFFFFFFFFFFFFFFFFFFFFFFFFFFF AND SWAP1 POP SWAP2 SWAP1 POP JUMP JUMPDEST PUSH1 0x60 PUSH0 PUSH0 DUP4 DUP2 MSTORE PUSH1 0x20 ADD SWAP1 DUP2 MSTORE PUSH1 0x20 ADD PUSH0 KECCAK256 PUSH1 0x6 ADD DUP1 SLOAD DUP1 PUSH1 0x20 MUL PUSH1 0x20 ADD PUSH1 0x40 MLOAD SWAP1 DUP2 ADD PUSH1 0x40 MSTORE DUP1 SWAP3 SWAP2 SWAP1 DUP2 DUP2 MSTORE PUSH1 0x20 ADD DUP3 DUP1 SLOAD DUP1 ISZERO PUSH2 0xD41 JUMPI PUSH1 0x20 MUL DUP3 ADD SWAP2 SWAP1 PUSH0 MSTORE PUSH1 0x20 PUSH0 KECCAK256 SWAP1 PUSH0 SWAP1 JUMPDEST DUP3 DUP3 SWAP1 SLOAD SWAP1 PUSH2 0x100 EXP SWAP1 DIV PUSH4 0xFFFFFFFF AND PUSH4 0xFFFFFFFF AND DUP2 MSTORE PUSH1 0x20 ADD SWAP1 PUSH1 0x4 ADD SWAP1 PUSH1 0x20 DUP3 PUSH1 0x3 ADD DIV SWAP3 DUP4 ADD SWAP3 PUSH1 0x1 SUB DUP3 MUL SWAP2 POP DUP1 DUP5 GT PUSH2 0xD04 JUMPI SWAP1 POP JUMPDEST POP POP POP POP POP SWAP1 POP SWAP2 SWAP1 POP JUMP JUMPDEST PUSH0 PUSH0 PUSH0 DUP4 DUP2 MSTORE PUSH1 0x20 ADD SWAP1 DUP2 MSTORE PUSH1 0x20 ADD PUSH0 KECCAK256 PUSH0 ADD PUSH1 0x8 SWAP1 SLOAD SWAP1 PUSH2 0x100 EXP SWAP1 DIV PUSH1 0xFF AND SWAP1 POP SWAP2 SWAP1 POP JUMP JUMPDEST PUSH0 PUSH0 PUSH0 DUP5 DUP2 MSTORE PUSH1 0x20 ADD SWAP1 DUP2 MSTORE PUSH1 0x20 ADD PUSH0 KECCAK256 SWAP1 POP DUP1 PUSH0 ADD PUSH0 SWAP1 SLOAD SWAP1 PUSH2 0x100 EXP SWAP1 DIV PUSH8 0xFFFFFFFFFFFFFFFF AND PUSH8 0xFFFFFFFFFFFFFFFF AND TIMESTAMP LT PUSH2 0xDEA JUMPI PUSH1 0x40 MLOAD PUSH32 0x8C379A000000000000000000000000000000000000000000000000000000000 DUP2 MSTORE PUSH1 0x4 ADD PUSH2 0xDE1 SWAP1 PUSH2 0x2219 JUMP JUMPDEST PUSH1 0x40 MLOAD DUP1 SWAP2 SUB SWAP1 REVERT JUMPDEST PUSH0 PUSH0 SHL DUP2 PUSH1 0x4 ADD PUSH0 CALLER PUSH20 0xFFFFFFFFFFFFFFFFFFFFFFFFFFFFFFFFFFFFFFFF AND PUSH20 0xFFFFFFFFFFFFFFFFFFFFFFFFFFFFFFFFFFFFFFFF AND DUP2 MSTORE PUSH1 0x20 ADD SWAP1 DUP2 MSTORE PUSH1 0x20 ADD PUSH0 KECCAK256 SLOAD EQ PUSH2 0xE6D JUMPI PUSH1 0x40 MLOAD PUSH32 0x8C379A000000000000000000000000000000000000000000000000000000000 DUP2 MSTORE PUSH1 0x4 ADD PUSH2 0xE64 SWAP1 PUSH2 0x2281 JUMP JUMPDEST PUSH1 0x40 MLOAD DUP1 SWAP2 SUB SWAP1 REVERT JUMPDEST DUP2 DUP2 PUSH1 0x4 ADD PUSH0 CALLER PUSH20 0xFFFFFFFFFFFFFFFFFFFFFFFFFFFFFFFFFFFFFFFF AND PUSH20 0xFFFFFFFFFFFFFFFFFFFFFFFFFFFFFFFFFFFFFFFF AND DUP2 MSTORE PUSH1 0x20 ADD SWAP1 DUP2 MSTORE PUSH1 0x20 ADD PUSH0 KECCAK256 DUP2 SWAP1 SSTORE POP CALLER PUSH20 0xFFFFFFFFFFFFFFFFFFFFFFFFFFFFFFFFFFFFFFFF AND DUP4 PUSH32 0x452C97FAB23345463F6FBB454D3BF4F408941C88ABE2E79586032F5C8F9711FB PUSH1 0x40 MLOAD PUSH1 0x40 MLOAD DUP1 SWAP2 SUB SWAP1 LOG3 POP POP POP JUMP JUMPDEST DUP3 DUP1 SLOAD DUP3 DUP3 SSTORE SWAP1 PUSH0 MSTORE PUSH1 0x20 PUSH0 KECCAK256 SWAP1 DUP2 ADD SWAP3 DUP3 ISZERO PUSH2 0xF40 JUMPI SWAP2 PUSH1 0x20 MUL DUP3 ADD JUMPDEST DUP3 DUP2 GT ISZERO PUSH2 0xF3F JUMPI DUP3 MLOAD DUP3 SWAP1 DUP2 PUSH2 0xF2F SWAP2 SWAP1 PUSH2 0x20AF JUMP JUMPDEST POP SWAP2 PUSH1 0x20 ADD SWAP2 SWAP1 PUSH1 0x1 ADD SWAP1 PUSH2 0xF18 JUMP JUMPDEST JUMPDEST POP SWAP1 POP PUSH2 0xF4D SWAP2 SWAP1 PUSH2 0xFFE JUMP JUMPDEST POP SWAP1 JUMP JUMPDEST DUP3 DUP1 SLOAD DUP3 DUP3 SSTORE SWAP1 PUSH0 MSTORE PUSH1 0x20 PUSH0 KECCAK256 SWAP1 PUSH1 0x7 ADD PUSH1 0x8 SWAP1 DIV DUP2 ADD SWAP3 DUP3 ISZERO PUSH2 0xFED JUMPI SWAP2 PUSH1 0x20 MUL DUP3 ADD PUSH0 JUMPDEST DUP4 DUP3 GT ISZERO PUSH2 0xFBB JUMPI DUP4 MLOAD DUP4 DUP3 PUSH2 0x100 EXP DUP2 SLOAD DUP2 PUSH4 0xFFFFFFFF MUL NOT AND SWAP1 DUP4 PUSH4 0xFFFFFFFF AND MUL OR SWAP1 SSTORE POP SWAP3 PUSH1 0x20 ADD SWAP3 PUSH1 0x4 ADD PUSH1 0x20 DUP2 PUSH1 0x3 ADD DIV SWAP3 DUP4 ADD SWAP3 PUSH1 0x1 SUB MUL PUSH2 0xF77 JUMP JUMPDEST DUP1 ISZERO PUSH2 0xFEB JUMPI DUP3 DUP2 PUSH2 0x100 EXP DUP2 SLOAD SWAP1 PUSH4 0xFFFFFFFF MUL NOT AND SWAP1 SSTORE PUSH1 0x4 ADD PUSH1 0x20 DUP2 PUSH1 0x3 ADD DIV SWAP3 DUP4 ADD SWAP3 PUSH1 0x1 SUB MUL PUSH2 0xFBB JUMP JUMPDEST POP JUMPDEST POP SWAP1 POP PUSH2 0xFFA SWAP2 SWAP1 PUSH2 0x1021 JUMP JUMPDEST POP SWAP1 JUMP JUMPDEST JUMPDEST DUP1 DUP3 GT ISZERO PUSH2 0x101D JUMPI PUSH0 DUP2 DUP2 PUSH2 0x1014 SWAP2 SWAP1 PUSH2 0x103C JUMP JUMPDEST POP PUSH1 0x1 ADD PUSH2 0xFFF JUMP JUMPDEST POP SWAP1 JUMP JUMPDEST JUMPDEST DUP1 DUP3 GT ISZERO PUSH2 0x1038 JUMPI PUSH0 DUP2 PUSH0 SWAP1 SSTORE POP PUSH1 0x1 ADD PUSH2 0x1022 JUMP JUMPDEST POP SWAP1 JUMP JUMPDEST POP DUP1 SLOAD PUSH2 0x1048 SWAP1 PUSH2 0x1926 JUMP JUMPDEST PUSH0 DUP3 SSTORE DUP1 PUSH1 0x1F LT PUSH2 0x1059 JUMPI POP PUSH2 0x1076 JUMP JUMPDEST PUSH1 0x1F ADD PUSH1 0x20 SWAP1 DIV SWAP1 PUSH0 MSTORE PUSH1 0x20 PUSH0 KECCAK256 SWAP1 DUP2 ADD SWAP1 PUSH2 0x1075 SWAP2 SWAP1 PUSH2 0x1021 JUMP JUMPDEST JUMPDEST POP JUMP JUMPDEST PUSH0 PUSH1 0x40 MLOAD SWAP1 POP SWAP1 JUMP JUMPDEST PUSH0 PUSH0 REVERT JUMPDEST PUSH0 PUSH0 REVERT JUMPDEST PUSH0 DUP2 SWAP1 POP SWAP2 SWAP1 POP JUMP JUMPDEST PUSH2 0x109C DUP2 PUSH2 0x108A JUMP JUMPDEST DUP2 EQ PUSH2 0x10A6 JUMPI PUSH0 PUSH0 REVERT JUMPDEST POP JUMP JUMPDEST PUSH0 DUP2 CALLDATALOAD SWAP1 POP PUSH2 0x10B7 DUP2 PUSH2 0x1093 JUMP JUMPDEST SWAP3 SWAP2 POP POP JUMP JUMPDEST PUSH0 PUSH20 0xFFFFFFFFFFFFFFFFFFFFFFFFFFFFFFFFFFFFFFFF DUP3 AND SWAP1 POP SWAP2 SWAP1 POP JUMP JUMPDEST PUSH0 PUSH2 0x10E6 DUP3 PUSH2 0x10BD JUMP JUMPDEST SWAP1 POP SWAP2 SWAP1 POP JUMP JUMPDEST PUSH2 0x10F6 DUP2 PUSH2 0x10DC JUMP JUMPDEST DUP2 EQ PUSH2 0x1100 JUMPI PUSH0 PUSH0 REVERT JUMPDEST POP JUMP JUMPDEST PUSH0 DUP2 CALLDATALOAD SWAP1 POP PUSH2 0x1111 DUP2 PUSH2 0x10ED JUMP JUMPDEST SWAP3 SWAP2 POP POP JUMP JUMPDEST PUSH0 PUSH0 PUSH1 0x40 DUP4 DUP6 SUB SLT ISZERO PUSH2 0x112D JUMPI PUSH2 0x112C PUSH2 0x1082 JUMP JUMPDEST JUMPDEST PUSH0 PUSH2 0x113A DUP6 DUP3 DUP7 ADD PUSH2 0x10A9 JUMP JUMPDEST SWAP3 POP POP PUSH1 0x20 PUSH2 0x114B DUP6 DUP3 DUP7 ADD PUSH2 0x1103 JUMP JUMPDEST SWAP2 POP POP SWAP3 POP SWAP3 SWAP1 POP JUMP JUMPDEST PUSH0 DUP2 ISZERO ISZERO SWAP1 POP SWAP2 SWAP1 POP JUMP JUMPDEST PUSH2 0x1169 DUP2 PUSH2 0x1155 JUMP JUMPDEST DUP3 MSTORE POP POP JUMP JUMPDEST PUSH0 PUSH1 0x20 DUP3 ADD SWAP1 POP PUSH2 0x1182 PUSH0 DUP4 ADD DUP5 PUSH2 0x1160 JUMP JUMPDEST SWAP3 SWAP2 POP POP JUMP JUMPDEST PUSH0 PUSH1 0x20 DUP3 DUP5 SUB SLT ISZERO PUSH2 0x119D JUMPI PUSH2 0x119C PUSH2 0x1082 JUMP JUMPDEST JUMPDEST PUSH0 PUSH2 0x11AA DUP5 DUP3 DUP6 ADD PUSH2 0x10A9 JUMP JUMPDEST SWAP2 POP POP SWAP3 SWAP2 POP POP JUMP JUMPDEST PUSH0 DUP2 MLOAD SWAP1 POP SWAP2 SWAP1 POP JUMP JUMPDEST PUSH0 DUP3 DUP3 MSTORE PUSH1 0x20 DUP3 ADD SWAP1 POP SWAP3 SWAP2 POP POP JUMP JUMPDEST DUP3 DUP2 DUP4 MCOPY PUSH0 DUP4 DUP4 ADD MSTORE POP POP POP JUMP JUMPDEST PUSH0 PUSH1 0x1F NOT PUSH1 0x1F DUP4 ADD AND SWAP1 POP SWAP2 SWAP1 POP JUMP JUMPDEST PUSH0 PUSH2 0x11F5 DUP3 PUSH2 0x11B3 JUMP JUMPDEST PUSH2 0x11FF DUP2 DUP6 PUSH2 0x11BD JUMP JUMPDEST SWAP4 POP PUSH2 0x120F DUP2 DUP6 PUSH1 0x20 DUP7 ADD PUSH2 0x11CD JUMP JUMPDEST PUSH2 0x1218 DUP2 PUSH2 0x11DB JUMP JUMPDEST DUP5 ADD SWAP2 POP POP SWAP3 SWAP2 POP POP JUMP JUMPDEST PUSH0 PUSH1 0x20 DUP3 ADD SWAP1 POP DUP2 DUP2 SUB PUSH0 DUP4 ADD MSTORE PUSH2 0x123B DUP2 DUP5 PUSH2 0x11EB JUMP JUMPDEST SWAP1 POP SWAP3 SWAP2 POP POP JUMP JUMPDEST PUSH0 PUSH8 0xFFFFFFFFFFFFFFFF DUP3 AND SWAP1 POP SWAP2 SWAP1 POP JUMP JUMPDEST PUSH2 0x125F DUP2 PUSH2 0x1243 JUMP JUMPDEST DUP3 MSTORE POP POP JUMP JUMPDEST PUSH0 PUSH1 0x20 DUP3 ADD SWAP1 POP PUSH2 0x1278 PUSH0 DUP4 ADD DUP5 PUSH2 0x1256 JUMP JUMPDEST SWAP3 SWAP2 POP POP JUMP JUMPDEST PUSH0 DUP2 MLOAD SWAP1 POP SWAP2 SWAP1 POP JUMP JUMPDEST PUSH0 DUP3 DUP3 MSTORE PUSH1 0x20 DUP3 ADD SWAP1 POP SWAP3 SWAP2 POP POP JUMP JUMPDEST PUSH0 DUP2 SWAP1 POP PUSH1 0x20 DUP3 ADD SWAP1 POP SWAP2 SWAP1 POP JUMP JUMPDEST PUSH0 DUP3 DUP3 MSTORE PUSH1 0x20 DUP3 ADD SWAP1 POP SWAP3 SWAP2 POP POP JUMP JUMPDEST PUSH0 PUSH2 0x12C1 DUP3 PUSH2 0x11B3 JUMP JUMPDEST PUSH2 0x12CB DUP2 DUP6 PUSH2 0x12A7 JUMP JUMPDEST SWAP4 POP PUSH2 0x12DB DUP2 DUP6 PUSH1 0x20 DUP7 ADD PUSH2 0x11CD JUMP JUMPDEST PUSH2 0x12E4 DUP2 PUSH2 0x11DB JUMP JUMPDEST DUP5 ADD SWAP2 POP POP SWAP3 SWAP2 POP POP JUMP JUMPDEST PUSH0 PUSH2 0x12FA DUP4 DUP4 PUSH2 0x12B7 JUMP JUMPDEST SWAP1 POP SWAP3 SWAP2 POP POP JUMP JUMPDEST PUSH0 PUSH1 0x20 DUP3 ADD SWAP1 POP SWAP2 SWAP1 POP JUMP JUMPDEST PUSH0 PUSH2 0x1318 DUP3 PUSH2 0x127E JUMP JUMPDEST PUSH2 0x1322 DUP2 DUP6 PUSH2 0x1288 JUMP JUMPDEST SWAP4 POP DUP4 PUSH1 0x20 DUP3 MUL DUP6 ADD PUSH2 0x1334 DUP6 PUSH2 0x1298 JUMP JUMPDEST DUP1 PUSH0 JUMPDEST DUP6 DUP2 LT ISZERO PUSH2 0x136F JUMPI DUP5 DUP5 SUB DUP10 MSTORE DUP2 MLOAD PUSH2 0x1350 DUP6 DUP3 PUSH2 0x12EF JUMP JUMPDEST SWAP5 POP PUSH2 0x135B DUP4 PUSH2 0x1302 JUMP JUMPDEST SWAP3 POP PUSH1 0x20 DUP11 ADD SWAP10 POP POP PUSH1 0x1 DUP2 ADD SWAP1 POP PUSH2 0x1337 JUMP JUMPDEST POP DUP3 SWAP8 POP DUP8 SWAP6 POP POP POP POP POP POP SWAP3 SWAP2 POP POP JUMP JUMPDEST PUSH0 PUSH1 0x20 DUP3 ADD SWAP1 POP DUP2 DUP2 SUB PUSH0 DUP4 ADD MSTORE PUSH2 0x1399 DUP2 DUP5 PUSH2 0x130E JUMP JUMPDEST SWAP1 POP SWAP3 SWAP2 POP POP JUMP JUMPDEST PUSH2 0x13AA DUP2 PUSH2 0x108A JUMP JUMPDEST DUP3 MSTORE POP POP JUMP JUMPDEST PUSH0 PUSH1 0x20 DUP3 ADD SWAP1 POP PUSH2 0x13C3 PUSH0 DUP4 ADD DUP5 PUSH2 0x13A1 JUMP JUMPDEST SWAP3 SWAP2 POP POP JUMP JUMPDEST PUSH0 PUSH1 0xFF DUP3 AND SWAP1 POP SWAP2 SWAP1 POP JUMP JUMPDEST PUSH2 0x13DE DUP2 PUSH2 0x13C9 JUMP JUMPDEST DUP2 EQ PUSH2 0x13E8 JUMPI PUSH0 PUSH0 REVERT JUMPDEST POP JUMP JUMPDEST PUSH0 DUP2 CALLDATALOAD SWAP1 POP PUSH2 0x13F9 DUP2 PUSH2 0x13D5 JUMP JUMPDEST SWAP3 SWAP2 POP POP JUMP JUMPDEST PUSH0 DUP2 SWAP1 POP SWAP2 SWAP1 POP JUMP JUMPDEST PUSH2 0x1411 DUP2 PUSH2 0x13FF JUMP JUMPDEST DUP2 EQ PUSH2 0x141B JUMPI PUSH0 PUSH0 REVERT JUMPDEST POP JUMP JUMPDEST PUSH0 DUP2 CALLDATALOAD SWAP1 POP PUSH2 0x142C DUP2 PUSH2 0x1408 JUMP JUMPDEST SWAP3 SWAP2 POP POP JUMP JUMPDEST PUSH0 PUSH0 PUSH0 PUSH1 0x60 DUP5 DUP7 SUB SLT ISZERO PUSH2 0x1449 JUMPI PUSH2 0x1448 PUSH2 0x1082 JUMP JUMPDEST JUMPDEST PUSH0 PUSH2 0x1456 DUP7 DUP3 DUP8 ADD PUSH2 0x10A9 JUMP JUMPDEST SWAP4 POP POP PUSH1 0x20 PUSH2 0x1467 DUP7 DUP3 DUP8 ADD PUSH2 0x13EB JUMP JUMPDEST SWAP3 POP POP PUSH1 0x40 PUSH2 0x1478 DUP7 DUP3 DUP8 ADD PUSH2 0x141E JUMP JUMPDEST SWAP2 POP POP SWAP3 POP SWAP3 POP SWAP3 JUMP JUMPDEST PUSH0 PUSH4 0xFFFFFFFF DUP3 AND SWAP1 POP SWAP2 SWAP1 POP JUMP JUMPDEST PUSH2 0x149A DUP2 PUSH2 0x1482 JUMP JUMPDEST DUP2 EQ PUSH2 0x14A4 JUMPI PUSH0 PUSH0 REVERT JUMPDEST POP JUMP JUMPDEST PUSH0 DUP2 CALLDATALOAD SWAP1 POP PUSH2 0x14B5 DUP2 PUSH2 0x1491 JUMP JUMPDEST SWAP3 SWAP2 POP POP JUMP JUMPDEST PUSH0 PUSH0 REVERT JUMPDEST PUSH0 PUSH0 REVERT JUMPDEST PUSH32 0x4E487B7100000000000000000000000000000000000000000000000000000000 PUSH0 MSTORE PUSH1 0x41 PUSH1 0x4 MSTORE PUSH1 0x24 PUSH0 REVERT JUMPDEST PUSH2 0x14F9 DUP3 PUSH2 0x11DB JUMP JUMPDEST DUP2 ADD DUP2 DUP2 LT PUSH8 0xFFFFFFFFFFFFFFFF DUP3 GT OR ISZERO PUSH2 0x1518 JUMPI PUSH2 0x1517 PUSH2 0x14C3 JUMP JUMPDEST JUMPDEST DUP1 PUSH1 0x40 MSTORE POP POP POP JUMP JUMPDEST PUSH0 PUSH2 0x152A PUSH2 0x1079 JUMP JUMPDEST SWAP1 POP PUSH2 0x1536 DUP3 DUP3 PUSH2 0x14F0 JUMP JUMPDEST SWAP2 SWAP1 POP JUMP JUMPDEST PUSH0 PUSH8 0xFFFFFFFFFFFFFFFF DUP3 GT ISZERO PUSH2 0x1555 JUMPI PUSH2 0x1554 PUSH2 0x14C3 JUMP JUMPDEST JUMPDEST PUSH2 0x155E DUP3 PUSH2 0x11DB JUMP JUMPDEST SWAP1 POP PUSH1 0x20 DUP2 ADD SWAP1 POP SWAP2 SWAP1 POP JUMP JUMPDEST DUP3 DUP2 DUP4 CALLDATACOPY PUSH0 DUP4 DUP4 ADD MSTORE POP POP POP JUMP JUMPDEST PUSH0 PUSH2 0x158B PUSH2 0x1586 DUP5 PUSH2 0x153B JUMP JUMPDEST PUSH2 0x1521 JUMP JUMPDEST SWAP1 POP DUP3 DUP2 MSTORE PUSH1 0x20 DUP2 ADD DUP5 DUP5 DUP5 ADD GT ISZERO PUSH2 0x15A7 JUMPI PUSH2 0x15A6 PUSH2 0x14BF JUMP JUMPDEST JUMPDEST PUSH2 0x15B2 DUP5 DUP3 DUP6 PUSH2 0x156B JUMP JUMPDEST POP SWAP4 SWAP3 POP POP POP JUMP JUMPDEST PUSH0 DUP3 PUSH1 0x1F DUP4 ADD SLT PUSH2 0x15CE JUMPI PUSH2 0x15CD PUSH2 0x14BB JUMP JUMPDEST JUMPDEST DUP2 CALLDATALOAD PUSH2 0x15DE DUP5 DUP3 PUSH1 0x20 DUP7 ADD PUSH2 0x1579 JUMP JUMPDEST SWAP2 POP POP SWAP3 SWAP2 POP POP JUMP JUMPDEST PUSH0 PUSH8 0xFFFFFFFFFFFFFFFF DUP3 GT ISZERO PUSH2 0x1601 JUMPI PUSH2 0x1600 PUSH2 0x14C3 JUMP JUMPDEST JUMPDEST PUSH1 0x20 DUP3 MUL SWAP1 POP PUSH1 0x20 DUP2 ADD SWAP1 POP SWAP2 SWAP1 POP JUMP JUMPDEST PUSH0 PUSH0 REVERT JUMPDEST PUSH0 PUSH2 0x1628 PUSH2 0x1623 DUP5 PUSH2 0x15E7 JUMP JUMPDEST PUSH2 0x1521 JUMP JUMPDEST SWAP1 POP DUP1 DUP4 DUP3 MSTORE PUSH1 0x20 DUP3 ADD SWAP1 POP PUSH1 0x20 DUP5 MUL DUP4 ADD DUP6 DUP2 GT ISZERO PUSH2 0x164B JUMPI PUSH2 0x164A PUSH2 0x1612 JUMP JUMPDEST JUMPDEST DUP4 JUMPDEST DUP2 DUP2 LT ISZERO PUSH2 0x1692 JUMPI DUP1 CALLDATALOAD PUSH8 0xFFFFFFFFFFFFFFFF DUP2 GT ISZERO PUSH2 0x1670 JUMPI PUSH2 0x166F PUSH2 0x14BB JUMP JUMPDEST JUMPDEST DUP1 DUP7 ADD PUSH2 0x167D DUP10 DUP3 PUSH2 0x15BA JUMP JUMPDEST DUP6 MSTORE PUSH1 0x20 DUP6 ADD SWAP5 POP POP POP PUSH1 0x20 DUP2 ADD SWAP1 POP PUSH2 0x164D JUMP JUMPDEST POP POP POP SWAP4 SWAP3 POP POP POP JUMP JUMPDEST PUSH0 DUP3 PUSH1 0x1F DUP4 ADD SLT PUSH2 0x16B0 JUMPI PUSH2 0x16AF PUSH2 0x14BB JUMP JUMPDEST JUMPDEST DUP2 CALLDATALOAD PUSH2 0x16C0 DUP5 DUP3 PUSH1 0x20 DUP7 ADD PUSH2 0x1616 JUMP JUMPDEST SWAP2 POP POP SWAP3 SWAP2 POP POP JUMP JUMPDEST PUSH0 PUSH0 PUSH0 PUSH0 PUSH0 PUSH1 0xA0 DUP7 DUP9 SUB SLT ISZERO PUSH2 0x16E2 JUMPI PUSH2 0x16E1 PUSH2 0x1082 JUMP JUMPDEST JUMPDEST PUSH0 PUSH2 0x16EF DUP9 DUP3 DUP10 ADD PUSH2 0x13EB JUMP JUMPDEST SWAP6 POP POP PUSH1 0x20 PUSH2 0x1700 DUP9 DUP3 DUP10 ADD PUSH2 0x14A7 JUMP JUMPDEST SWAP5 POP POP PUSH1 0x40 DUP7 ADD CALLDATALOAD PUSH8 0xFFFFFFFFFFFFFFFF DUP2 GT ISZERO PUSH2 0x1721 JUMPI PUSH2 0x1720 PUSH2 0x1086 JUMP JUMPDEST JUMPDEST PUSH2 0x172D DUP9 DUP3 DUP10 ADD PUSH2 0x15BA JUMP JUMPDEST SWAP4 POP POP PUSH1 0x60 DUP7 ADD CALLDATALOAD PUSH8 0xFFFFFFFFFFFFFFFF DUP2 GT ISZERO PUSH2 0x174E JUMPI PUSH2 0x174D PUSH2 0x1086 JUMP JUMPDEST JUMPDEST PUSH2 0x175A DUP9 DUP3 DUP10 ADD PUSH2 0x15BA JUMP JUMPDEST SWAP3 POP POP PUSH1 0x80 DUP7 ADD CALLDATALOAD PUSH8 0xFFFFFFFFFFFFFFFF DUP2 GT ISZERO PUSH2 0x177B JUMPI PUSH2 0x177A PUSH2 0x1086 JUMP JUMPDEST JUMPDEST PUSH2 0x1787 DUP9 DUP3 DUP10 ADD PUSH2 0x169C JUMP JUMPDEST SWAP2 POP POP SWAP3 SWAP6 POP SWAP3 SWAP6 SWAP1 SWAP4 POP JUMP JUMPDEST PUSH2 0x179D DUP2 PUSH2 0x10DC JUMP JUMPDEST DUP3 MSTORE POP POP JUMP JUMPDEST PUSH0 PUSH1 0x20 DUP3 ADD SWAP1 POP PUSH2 0x17B6 PUSH0 DUP4 ADD DUP5 PUSH2 0x1794 JUMP JUMPDEST SWAP3 SWAP2 POP POP JUMP JUMPDEST PUSH0 DUP2 MLOAD SWAP1 POP SWAP2 SWAP1 POP JUMP JUMPDEST PUSH0 DUP3 DUP3 MSTORE PUSH1 0x20 DUP3 ADD SWAP1 POP SWAP3 SWAP2 POP POP JUMP JUMPDEST PUSH0 DUP2 SWAP1 POP PUSH1 0x20 DUP3 ADD SWAP1 POP SWAP2 SWAP1 POP JUMP JUMPDEST PUSH2 0x17EE DUP2 PUSH2 0x1482 JUMP JUMPDEST DUP3 MSTORE POP POP JUMP JUMPDEST PUSH0 PUSH2 0x17FF DUP4 DUP4 PUSH2 0x17E5 JUMP JUMPDEST PUSH1 0x20 DUP4 ADD SWAP1 POP SWAP3 SWAP2 POP POP JUMP JUMPDEST PUSH0 PUSH1 0x20 DUP3 ADD SWAP1 POP SWAP2 SWAP1 POP JUMP JUMPDEST PUSH0 PUSH2 0x1821 DUP3 PUSH2 0x17BC JUMP JUMPDEST PUSH2 0x182B DUP2 DUP6 PUSH2 0x17C6 JUMP JUMPDEST SWAP4 POP PUSH2 0x1836 DUP4 PUSH2 0x17D6 JUMP JUMPDEST DUP1 PUSH0 JUMPDEST DUP4 DUP2 LT ISZERO PUSH2 0x1866 JUMPI DUP2 MLOAD PUSH2 0x184D DUP9 DUP3 PUSH2 0x17F4 JUMP JUMPDEST SWAP8 POP PUSH2 0x1858 DUP4 PUSH2 0x180B JUMP JUMPDEST SWAP3 POP POP PUSH1 0x1 DUP2 ADD SWAP1 POP PUSH2 0x1839 JUMP JUMPDEST POP DUP6 SWAP4 POP POP POP POP SWAP3 SWAP2 POP POP JUMP JUMPDEST PUSH0 PUSH1 0x20 DUP3 ADD SWAP1 POP DUP2 DUP2 SUB PUSH0 DUP4 ADD MSTORE PUSH2 0x188B DUP2 DUP5 PUSH2 0x1817 JUMP JUMPDEST SWAP1 POP SWAP3 SWAP2 POP POP JUMP JUMPDEST PUSH2 0x189C DUP2 PUSH2 0x13C9 JUMP JUMPDEST DUP3 MSTORE POP POP JUMP JUMPDEST PUSH0 PUSH1 0x20 DUP3 ADD SWAP1 POP PUSH2 0x18B5 PUSH0 DUP4 ADD DUP5 PUSH2 0x1893 JUMP JUMPDEST SWAP3 SWAP2 POP POP JUMP JUMPDEST PUSH0 PUSH0 PUSH1 0x40 DUP4 DUP6 SUB SLT ISZERO PUSH2 0x18D1 JUMPI PUSH2 0x18D0 PUSH2 0x1082 JUMP JUMPDEST JUMPDEST PUSH0 PUSH2 0x18DE DUP6 DUP3 DUP7 ADD PUSH2 0x10A9 JUMP JUMPDEST SWAP3 POP POP PUSH1 0x20 PUSH2 0x18EF DUP6 DUP3 DUP7 ADD PUSH2 0x141E JUMP JUMPDEST SWAP2 POP POP SWAP3 POP SWAP3 SWAP1 POP JUMP JUMPDEST PUSH32 0x4E487B7100000000000000000000000000000000000000000000000000000000 PUSH0 MSTORE PUSH1 0x22 PUSH1 0x4 MSTORE PUSH1 0x24 PUSH0 REVERT JUMPDEST PUSH0 PUSH1 0x2 DUP3 DIV SWAP1 POP PUSH1 0x1 DUP3 AND DUP1 PUSH2 0x193D JUMPI PUSH1 0x7F DUP3 AND SWAP2 POP JUMPDEST PUSH1 0x20 DUP3 LT DUP2 SUB PUSH2 0x1950 JUMPI PUSH2 0x194F PUSH2 0x18F9 JUMP JUMPDEST JUMPDEST POP SWAP2 SWAP1 POP JUMP JUMPDEST PUSH32 0x636F6D6D6974207068617365206E6F74206F7665720000000000000000000000 PUSH0 DUP3 ADD MSTORE POP JUMP JUMPDEST PUSH0 PUSH2 0x198A PUSH1 0x15 DUP4 PUSH2 0x11BD JUMP JUMPDEST SWAP2 POP PUSH2 0x1995 DUP3 PUSH2 0x1956 JUMP JUMPDEST PUSH1 0x20 DUP3 ADD SWAP1 POP SWAP2 SWAP1 POP JUMP JUMPDEST PUSH0 PUSH1 0x20 DUP3 ADD SWAP1 POP DUP2 DUP2 SUB PUSH0 DUP4 ADD MSTORE PUSH2 0x19B7 DUP2 PUSH2 0x197E JUMP JUMPDEST SWAP1 POP SWAP2 SWAP1 POP JUMP JUMPDEST PUSH32 0x626164206F7074696F6E00000000000000000000000000000000000000000000 PUSH0 DUP3 ADD MSTORE POP JUMP JUMPDEST PUSH0 PUSH2 0x19F2 PUSH1 0xA DUP4 PUSH2 0x11BD JUMP JUMPDEST SWAP2 POP PUSH2 0x19FD DUP3 PUSH2 0x19BE JUMP JUMPDEST PUSH1 0x20 DUP3 ADD SWAP1 POP SWAP2 SWAP1 POP JUMP JUMPDEST PUSH0 PUSH1 0x20 DUP3 ADD SWAP1 POP DUP2 DUP2 SUB PUSH0 DUP4 ADD MSTORE PUSH2 0x1A1F DUP2 PUSH2 0x19E6 JUMP JUMPDEST SWAP1 POP SWAP2 SWAP1 POP JUMP JUMPDEST PUSH32 0x6E6F20636F6D6D69740000000000000000000000000000000000000000000000 PUSH0 DUP3 ADD MSTORE POP JUMP JUMPDEST PUSH0 PUSH2 0x1A5A PUSH1 0x9 DUP4 PUSH2 0x11BD JUMP JUMPDEST SWAP2 POP PUSH2 0x1A65 DUP3 PUSH2 0x1A26 JUMP JUMPDEST PUSH1 0x20 DUP3 ADD SWAP1 POP SWAP2 SWAP1 POP JUMP JUMPDEST PUSH0 PUSH1 0x20 DUP3 ADD SWAP1 POP DUP2 DUP2 SUB PUSH0 DUP4 ADD MSTORE PUSH2 0x1A87 DUP2 PUSH2 0x1A4E JUMP JUMPDEST SWAP1 POP SWAP2 SWAP1 POP JUMP JUMPDEST PUSH32 0x616C72656164792072657665616C656400000000000000000000000000000000 PUSH0 DUP3 ADD MSTORE POP JUMP JUMPDEST PUSH0 PUSH2 0x1AC2 PUSH1 0x10 DUP4 PUSH2 0x11BD JUMP JUMPDEST SWAP2 POP PUSH2 0x1ACD DUP3 PUSH2 0x1A8E JUMP JUMPDEST PUSH1 0x20 DUP3 ADD SWAP1 POP SWAP2 SWAP1 POP JUMP JUMPDEST PUSH0 PUSH1 0x20 DUP3 ADD SWAP1 POP DUP2 DUP2 SUB PUSH0 DUP4 ADD MSTORE PUSH2 0x1AEF DUP2 PUSH2 0x1AB6 JUMP JUMPDEST SWAP1 POP SWAP2 SWAP1 POP JUMP JUMPDEST PUSH0 DUP2 PUSH1 0xF8 SHL SWAP1 POP SWAP2 SWAP1 POP JUMP JUMPDEST PUSH0 PUSH2 0x1B0C DUP3 PUSH2 0x1AF6 JUMP JUMPDEST SWAP1 POP SWAP2 SWAP1 POP JUMP JUMPDEST PUSH2 0x1B24 PUSH2 0x1B1F DUP3 PUSH2 0x13C9 JUMP JUMPDEST PUSH2 0x1B02 JUMP JUMPDEST DUP3 MSTORE POP POP JUMP JUMPDEST PUSH0 DUP2 SWAP1 POP SWAP2 SWAP1 POP JUMP JUMPDEST PUSH2 0x1B44 PUSH2 0x1B3F DUP3 PUSH2 0x13FF JUMP JUMPDEST PUSH2 0x1B2A JUMP JUMPDEST DUP3 MSTORE POP POP JUMP JUMPDEST PUSH0 DUP2 PUSH1 0x60 SHL SWAP1 POP SWAP2 SWAP1 POP JUMP JUMPDEST PUSH0 PUSH2 0x1B60 DUP3 PUSH2 0x1B4A JUMP JUMPDEST SWAP1 POP SWAP2 SWAP1 POP JUMP JUMPDEST PUSH0 PUSH2 0x1B71 DUP3 PUSH2 0x1B56 JUMP JUMPDEST SWAP1 POP SWAP2 SWAP1 POP JUMP JUMPDEST PUSH2 0x1B89 PUSH2 0x1B84 DUP3 PUSH2 0x10DC JUMP JUMPDEST PUSH2 0x1B67 JUMP JUMPDEST DUP3 MSTORE POP POP JUMP JUMPDEST PUSH0 DUP2 SWAP1 POP SWAP2 SWAP1 POP JUMP JUMPDEST PUSH2 0x1BA9 PUSH2 0x1BA4 DUP3 PUSH2 0x108A JUMP JUMPDEST PUSH2 0x1B8F JUMP JUMPDEST DUP3 MSTORE POP POP JUMP JUMPDEST PUSH0 PUSH2 0x1BBA DUP3 DUP8 PUSH2 0x1B13 JUMP JUMPDEST PUSH1 0x1 DUP3 ADD SWAP2 POP PUSH2 0x1BCA DUP3 DUP7 PUSH2 0x1B33 JUMP JUMPDEST PUSH1 0x20 DUP3 ADD SWAP2 POP PUSH2 0x1BDA DUP3 DUP6 PUSH2 0x1B78 JUMP JUMPDEST PUSH1 0x14 DUP3 ADD SWAP2 POP PUSH2 0x1BEA DUP3 DUP5 PUSH2 0x1B98 JUMP JUMPDEST PUSH1 0x20 DUP3 ADD SWAP2 POP DUP2 SWAP1 POP SWAP6 SWAP5 POP POP POP POP POP JUMP JUMPDEST PUSH32 0x6D69736D61746368000000000000000000000000000000000000000000000000 PUSH0 DUP3 ADD MSTORE POP JUMP JUMPDEST PUSH0 PUSH2 0x1C30 PUSH1 0x8 DUP4 PUSH2 0x11BD JUMP JUMPDEST SWAP2 POP PUSH2 0x1C3B DUP3 PUSH2 0x1BFC JUMP JUMPDEST PUSH1 0x20 DUP3 ADD SWAP1 POP SWAP2 SWAP1 POP JUMP JUMPDEST PUSH0 PUSH1 0x20 DUP3 ADD SWAP1 POP DUP2 DUP2 SUB PUSH0 DUP4 ADD MSTORE PUSH2 0x1C5D DUP2 PUSH2 0x1C24 JUMP JUMPDEST SWAP1 POP SWAP2 SWAP1 POP JUMP JUMPDEST PUSH32 0x4E487B7100000000000000000000000000000000000000000000000000000000 PUSH0 MSTORE PUSH1 0x32 PUSH1 0x4 MSTORE PUSH1 0x24 PUSH0 REVERT JUMPDEST PUSH32 0x4E487B7100000000000000000000000000000000000000000000000000000000 PUSH0 MSTORE PUSH1 0x11 PUSH1 0x4 MSTORE PUSH1 0x24 PUSH0 REVERT JUMPDEST PUSH0 PUSH2 0x1CC8 DUP3 PUSH2 0x1482 JUMP JUMPDEST SWAP2 POP PUSH2 0x1CD3 DUP4 PUSH2 0x1482 JUMP JUMPDEST SWAP3 POP DUP3 DUP3 ADD SWAP1 POP PUSH4 0xFFFFFFFF DUP2 GT ISZERO PUSH2 0x1CEF JUMPI PUSH2 0x1CEE PUSH2 0x1C91 JUMP JUMPDEST JUMPDEST SWAP3 SWAP2 POP POP JUMP JUMPDEST PUSH32 0x626164206F7074696F6E73000000000000000000000000000000000000000000 PUSH0 DUP3 ADD MSTORE POP JUMP JUMPDEST PUSH0 PUSH2 0x1D29 PUSH1 0xB DUP4 PUSH2 0x11BD JUMP JUMPDEST SWAP2 POP PUSH2 0x1D34 DUP3 PUSH2 0x1CF5 JUMP JUMPDEST PUSH1 0x20 DUP3 ADD SWAP1 POP SWAP2 SWAP1 POP JUMP JUMPDEST PUSH0 PUSH1 0x20 DUP3 ADD SWAP1 POP DUP2 DUP2 SUB PUSH0 DUP4 ADD MSTORE PUSH2 0x1D56 DUP2 PUSH2 0x1D1D JUMP JUMPDEST SWAP1 POP SWAP2 SWAP1 POP JUMP JUMPDEST PUSH32 0x7469746C65207265717569726564000000000000000000000000000000000000 PUSH0 DUP3 ADD MSTORE POP JUMP JUMPDEST PUSH0 PUSH2 0x1D91 PUSH1 0xE DUP4 PUSH2 0x11BD JUMP JUMPDEST SWAP2 POP PUSH2 0x1D9C DUP3 PUSH2 0x1D5D JUMP JUMPDEST PUSH1 0x20 DUP3 ADD SWAP1 POP SWAP2 SWAP1 POP JUMP JUMPDEST PUSH0 PUSH1 0x20 DUP3 ADD SWAP1 POP DUP2 DUP2 SUB PUSH0 DUP4 ADD MSTORE PUSH2 0x1DBE DUP2 PUSH2 0x1D85 JUMP JUMPDEST SWAP1 POP SWAP2 SWAP1 POP JUMP JUMPDEST PUSH32 0x6465736372697074696F6E207265717569726564000000000000000000000000 PUSH0 DUP3 ADD MSTORE POP JUMP JUMPDEST PUSH0 PUSH2 0x1DF9 PUSH1 0x14 DUP4 PUSH2 0x11BD JUMP JUMPDEST SWAP2 POP PUSH2 0x1E04 DUP3 PUSH2 0x1DC5 JUMP JUMPDEST PUSH1 0x20 DUP3 ADD SWAP1 POP SWAP2 SWAP1 POP JUMP JUMPDEST PUSH0 PUSH1 0x20 DUP3 ADD SWAP1 POP DUP2 DUP2 SUB PUSH0 DUP4 ADD MSTORE PUSH2 0x1E26 DUP2 PUSH2 0x1DED JUMP JUMPDEST SWAP1 POP SWAP2 SWAP1 POP JUMP JUMPDEST PUSH32 0x6F7074696F6E73206C656E677468206D69736D61746368000000000000000000 PUSH0 DUP3 ADD MSTORE POP JUMP JUMPDEST PUSH0 PUSH2 0x1E61 PUSH1 0x17 DUP4 PUSH2 0x11BD JUMP JUMPDEST SWAP2 POP PUSH2 0x1E6C DUP3 PUSH2 0x1E2D JUMP JUMPDEST PUSH1 0x20 DUP3 ADD SWAP1 POP SWAP2 SWAP1 POP JUMP JUMPDEST PUSH0 PUSH1 0x20 DUP3 ADD SWAP1 POP DUP2 DUP2 SUB PUSH0 DUP4 ADD MSTORE PUSH2 0x1E8E DUP2 PUSH2 0x1E55 JUMP JUMPDEST SWAP1 POP SWAP2 SWAP1 POP JUMP JUMPDEST PUSH0 PUSH2 0x1E9F DUP3 PUSH2 0x108A JUMP JUMPDEST SWAP2 POP PUSH2 0x1EAA DUP4 PUSH2 0x108A JUMP JUMPDEST SWAP3 POP DUP3 DUP3 ADD SWAP1 POP DUP1 DUP3 GT ISZERO PUSH2 0x1EC2 JUMPI PUSH2 0x1EC1 PUSH2 0x1C91 JUMP JUMPDEST JUMPDEST SWAP3 SWAP2 POP POP JUMP JUMPDEST PUSH0 PUSH2 0x1ED2 DUP3 PUSH2 0x108A JUMP JUMPDEST SWAP2 POP PUSH32 0xFFFFFFFFFFFFFFFFFFFFFFFFFFFFFFFFFFFFFFFFFFFFFFFFFFFFFFFFFFFFFFFF DUP3 SUB PUSH2 0x1F04 JUMPI PUSH2 0x1F03 PUSH2 0x1C91 JUMP JUMPDEST JUMPDEST PUSH1 0x1 DUP3 ADD SWAP1 POP SWAP2 SWAP1 POP JUMP JUMPDEST PUSH0 DUP2 SWAP1 POP DUP2 PUSH0 MSTORE PUSH1 0x20 PUSH0 KECCAK256 SWAP1 POP SWAP2 SWAP1 POP JUMP JUMPDEST PUSH0 PUSH1 0x20 PUSH1 0x1F DUP4 ADD DIV SWAP1 POP SWAP2 SWAP1 POP JUMP JUMPDEST PUSH0 DUP3 DUP3 SHL SWAP1 POP SWAP3 SWAP2 POP POP JUMP JUMPDEST PUSH0 PUSH1 0x8 DUP4 MUL PUSH2 0x1F6B PUSH32 0xFFFFFFFFFFFFFFFFFFFFFFFFFFFFFFFFFFFFFFFFFFFFFFFFFFFFFFFFFFFFFFFF DUP3 PUSH2 0x1F30 JUMP JUMPDEST PUSH2 0x1F75 DUP7 DUP4 PUSH2 0x1F30 JUMP JUMPDEST SWAP6 POP DUP1 NOT DUP5 AND SWAP4 POP DUP1 DUP7 AND DUP5 OR SWAP3 POP POP POP SWAP4 SWAP3 POP POP POP JUMP JUMPDEST PUSH0 DUP2 SWAP1 POP SWAP2 SWAP1 POP JUMP JUMPDEST PUSH0 PUSH2 0x1FB0 PUSH2 0x1FAB PUSH2 0x1FA6 DUP5 PUSH2 0x108A JUMP JUMPDEST PUSH2 0x1F8D JUMP JUMPDEST PUSH2 0x108A JUMP JUMPDEST SWAP1 POP SWAP2 SWAP1 POP JUMP JUMPDEST PUSH0 DUP2 SWAP1 POP SWAP2 SWAP1 POP JUMP JUMPDEST PUSH2 0x1FC9 DUP4 PUSH2 0x1F96 JUMP JUMPDEST PUSH2 0x1FDD PUSH2 0x1FD5 DUP3 PUSH2 0x1FB7 JUMP JUMPDEST DUP5 DUP5 SLOAD PUSH2 0x1F3C JUMP JUMPDEST DUP3 SSTORE POP POP POP POP JUMP JUMPDEST PUSH0 PUSH0 SWAP1 POP SWAP1 JUMP JUMPDEST PUSH2 0x1FF4 PUSH2 0x1FE5 JUMP JUMPDEST PUSH2 0x1FFF DUP2 DUP5 DUP5 PUSH2 0x1FC0 JUMP JUMPDEST POP POP POP JUMP JUMPDEST JUMPDEST DUP2 DUP2 LT ISZERO PUSH2 0x2022 JUMPI PUSH2 0x2017 PUSH0 DUP3 PUSH2 0x1FEC JUMP JUMPDEST PUSH1 0x1 DUP2 ADD SWAP1 POP PUSH2 0x2005 JUMP JUMPDEST POP POP JUMP JUMPDEST PUSH1 0x1F DUP3 GT ISZERO PUSH2 0x2067 JUMPI PUSH2 0x2038 DUP2 PUSH2 0x1F0F JUMP JUMPDEST PUSH2 0x2041 DUP5 PUSH2 0x1F21 JUMP JUMPDEST DUP2 ADD PUSH1 0x20 DUP6 LT ISZERO PUSH2 0x2050 JUMPI DUP2 SWAP1 POP JUMPDEST PUSH2 0x2064 PUSH2 0x205C DUP6 PUSH2 0x1F21 JUMP JUMPDEST DUP4 ADD DUP3 PUSH2 0x2004 JUMP JUMPDEST POP POP JUMPDEST POP POP POP JUMP JUMPDEST PUSH0 DUP3 DUP3 SHR SWAP1 POP SWAP3 SWAP2 POP POP JUMP JUMPDEST PUSH0 PUSH2 0x2087 PUSH0 NOT DUP5 PUSH1 0x8 MUL PUSH2 0x206C JUMP JUMPDEST NOT DUP1 DUP4 AND SWAP2 POP POP SWAP3 SWAP2 POP POP JUMP JUMPDEST PUSH0 PUSH2 0x209F DUP4 DUP4 PUSH2 0x2078 JUMP JUMPDEST SWAP2 POP DUP3 PUSH1 0x2 MUL DUP3 OR SWAP1 POP SWAP3 SWAP2 POP POP JUMP JUMPDEST PUSH2 0x20B8 DUP3 PUSH2 0x11B3 JUMP JUMPDEST PUSH8 0xFFFFFFFFFFFFFFFF DUP2 GT ISZERO PUSH2 0x20D1 JUMPI PUSH2 0x20D0 PUSH2 0x14C3 JUMP JUMPDEST JUMPDEST PUSH2 0x20DB DUP3 SLOAD PUSH2 0x1926 JUMP JUMPDEST PUSH2 0x20E6 DUP3 DUP3 DUP6 PUSH2 0x2026 JUMP JUMPDEST PUSH0 PUSH1 0x20 SWAP1 POP PUSH1 0x1F DUP4 GT PUSH1 0x1 DUP2 EQ PUSH2 0x2117 JUMPI PUSH0 DUP5 ISZERO PUSH2 0x2105 JUMPI DUP3 DUP8 ADD MLOAD SWAP1 POP JUMPDEST PUSH2 0x210F DUP6 DUP3 PUSH2 0x2094 JUMP JUMPDEST DUP7 SSTORE POP PUSH2 0x2176 JUMP JUMPDEST PUSH1 0x1F NOT DUP5 AND PUSH2 0x2125 DUP7 PUSH2 0x1F0F JUMP JUMPDEST PUSH0 JUMPDEST DUP3 DUP2 LT ISZERO PUSH2 0x214C JUMPI DUP5 DUP10 ADD MLOAD DUP3 SSTORE PUSH1 0x1 DUP3 ADD SWAP2 POP PUSH1 0x20 DUP6 ADD SWAP5 POP PUSH1 0x20 DUP2 ADD SWAP1 POP PUSH2 0x2127 JUMP JUMPDEST DUP7 DUP4 LT ISZERO PUSH2 0x2169 JUMPI DUP5 DUP10 ADD MLOAD PUSH2 0x2165 PUSH1 0x1F DUP10 AND DUP3 PUSH2 0x2078 JUMP JUMPDEST DUP4 SSTORE POP JUMPDEST PUSH1 0x1 PUSH1 0x2 DUP9 MUL ADD DUP9 SSTORE POP POP POP JUMPDEST POP POP POP POP POP POP JUMP JUMPDEST PUSH0 PUSH1 0x80 DUP3 ADD SWAP1 POP PUSH2 0x2191 PUSH0 DUP4 ADD DUP8 PUSH2 0x1893 JUMP JUMPDEST PUSH2 0x219E PUSH1 0x20 DUP4 ADD DUP7 PUSH2 0x1256 JUMP JUMPDEST DUP2 DUP2 SUB PUSH1 0x40 DUP4 ADD MSTORE PUSH2 0x21B0 DUP2 DUP6 PUSH2 0x11EB JUMP JUMPDEST SWAP1 POP DUP2 DUP2 SUB PUSH1 0x60 DUP4 ADD MSTORE PUSH2 0x21C4 DUP2 DUP5 PUSH2 0x11EB JUMP JUMPDEST SWAP1 POP SWAP6 SWAP5 POP POP POP POP POP JUMP JUMPDEST PUSH32 0x636F6D6D6974206F766572000000000000000000000000000000000000000000 PUSH0 DUP3 ADD MSTORE POP JUMP JUMPDEST PUSH0 PUSH2 0x2203 PUSH1 0xB DUP4 PUSH2 0x11BD JUMP JUMPDEST SWAP2 POP PUSH2 0x220E DUP3 PUSH2 0x21CF JUMP JUMPDEST PUSH1 0x20 DUP3 ADD SWAP1 POP SWAP2 SWAP1 POP JUMP JUMPDEST PUSH0 PUSH1 0x20 DUP3 ADD SWAP1 POP DUP2 DUP2 SUB PUSH0 DUP4 ADD MSTORE PUSH2 0x2230 DUP2 PUSH2 0x21F7 JUMP JUMPDEST SWAP1 POP SWAP2 SWAP1 POP JUMP JUMPDEST PUSH32 0x616C726561647920636F6D6D6974746564000000000000000000000000000000 PUSH0 DUP3 ADD MSTORE POP JUMP JUMPDEST PUSH0 PUSH2 0x226B PUSH1 0x11 DUP4 PUSH2 0x11BD JUMP JUMPDEST SWAP2 POP PUSH2 0x2276 DUP3 PUSH2 0x2237 JUMP JUMPDEST PUSH1 0x20 DUP3 ADD SWAP1 POP SWAP2 SWAP1 POP JUMP JUMPDEST PUSH0 PUSH1 0x20 DUP3 ADD SWAP1 POP DUP2 DUP2 SUB PUSH0 DUP4 ADD MSTORE PUSH2 0x2298 DUP2 PUSH2 0x225F JUMP JUMPDEST SWAP1 POP SWAP2 SWAP1 POP JUMP INVALID LOG2 PUSH5 0x6970667358 0x22 SLT KECCAK256 PUSH31 0x13CD428EAAA748CCF1F6392F0C670FDC1A704D6225F301E4F4B758A328FA01 PUSH5 0x736F6C6343 STOP ADDMOD SHR STOP CALLER "},"methodIdentifiers":{"commit(uint256,bytes32)":"f2f03877","createPoll(uint8,uint32,string,string,string[])":"b138fb6a","getCommitEnd(uint256)":"4a8053b9","getCreator(uint256)":"d48e638a","getDescription(uint256)":"4925ec55","getNumOptions(uint256)":"edeb797c","getOptions(uint256)":"8915b3fb","getTally(uint256)":"eb0772c9","getTitle(uint256)":"929a79b1","hasCommitted(uint256,address)":"a99ef9f5","hasRevealed(uint256,address)":"16b5551d","pollCount()":"9207891d","reveal(uint256,uint8,bytes32)":"9a42f3aa"}}}}}